:100000000C9493000C94BB000C94BB000C94260B36
:100010000C94260B0C94260B0C94BB000C94BB0088
:100020000C94BB000C94BB000C94BB000C949E0B76
:100030000C94BB000C94BB000C94BB000C94BB0054
:100040000C94840A0C94BB000C94F40A0C94CE0A11
:100050000C94BB000C94BB000C94BB000C94BB0034
:100060000C94BB000C94BB004E6F2829002900287B
:1000700000260023235352564F3A494E4954002339
:10008000235352564F3A494E4954004E6F28290087
:1000900029002800260023235352564F3A50574D2B
:1000A000530023235352564F3A50574D5300536F2A
:1000B000667453657269616C496E69740053657446
:1000C0007570496E69740000000000240027002A42
:1000D0000000000008000201000003040700000007
:1000E000000000000000000000230026002900009E
:1000F000000000250028002B00040404040404046C
:1001000004020202020202030303030303010204C6
:100110000810204080010204081020010204081089
:100120002000750C290F11241FBECFEFD8E0DEBFD1
:10013000CDBF11E0A0E0B1E0E0E7FAE202C0059037
:100140000D92A837B107D9F722E0A8E7B1E001C0C6
:100150001D92AF3FB207E1F710E0C2E9D0E004C062
:100160002197FE010E943710C139D107C9F70E94BB
:10017000B30D0C942B150C9400008091C00290914B
:10018000C102892B59F1E091E301F091E40182E091
:10019000E63AF80719F1309739F0A389B4899C91B0
:1001A0008589809589238C938091C4028E7F80936A
:1001B000C4021092E2011092E10186EA92E090936B
:1001C000E4018093E301E091B902F091BA028081E9
:1001D0009091BB02892B808381E0089580E008958F
:1001E000833081F028F4813099F08230A9F00895AD
:1001F0008730A9F08830C9F08430B1F48091800054
:100200008F7D03C0809180008F7780938000089558
:1002100084B58F7784BD089584B58F7DFBCF8091A1
:10022000B0008F778093B00008958091B0008F7DEB
:10023000F9CF1F93CF93DF93282F30E0F901EF52CE
:10024000FF4F8491F901E35FFE4FD491F901E7502C
:10025000FF4FC491CC23A9F0162F81110E94F0000A
:10026000EC2FF0E0EE0FFF1FE151FF4FA591B4918D
:100270008FB7F894EC91111108C0D095DE23DC9370
:100280008FBFDF91CF911F910895DE2BF8CFCF93D1
:10029000DF9390E0FC01E35FFE4F249187509F4F76
:1002A000FC0184918823D1F090E0880F991FFC0114
:1002B000E953FF4FA591B491FC01E151FF4FC59166
:1002C000D49161110EC09FB7F8948C91E22FE09504
:1002D0008E238C932881E223E8839FBFDF91CF9107
:1002E00008958FB7F894EC91E22BEC938FBFF6CF83
:1002F0001F93CF93DF93EC01162F88818C3008F089
:1003000050C061E0812F0E9447018881282F30E092
:10031000F901EE0FFF1FE20FF31FEB51FE4F1F73AA
:100320006081607C612B608391E799839BE29A8373
:100330002CE0622F0E942B10829FB001112430E02C
:1003400020E0AB01420F531FFA01EE0FFF1FE40F35
:10035000F51FEB51FE4F908196FD16C02F5F3F4F6A
:100360002C30310571F781110FC01092800082E0AE
:10037000809381001092850010928400B19A809140
:100380006F00826080936F00E8818E2F90E0FC0107
:10039000EE0FFF1FE80FF91FEB51FE4F80818064C5
:1003A00080838881DF91CF911F910895FC01428362
:1003B00053836483758386819781A085B185840F7B
:1003C000951FA61FB71F82879387A487B5870895B7
:1003D0000895AF92BF92CF92DF92EF92FF920F9368
:1003E0001F93CF93DF936C017B018B01040F151FCB
:1003F000EB015E01AE18BF08C017D10759F0699133
:10040000D601ED91FC910190F081E02DC601099596
:10041000892B79F7C501DF91CF911F910F91FF9043
:10042000EF90DF90CF90BF90AF900895FC01538D77
:10043000448D252F30E0842F90E0821B930B5417BE
:1004400010F0CF96089501970895FC01918D828D4B
:10045000981761F0A28DAE0FBF2FB11D5D968C91E4
:10046000928D9F5F9F73928F90E008958FEF9FEF23
:100470000895FC01918D828D981731F0828DE80FDF
:10048000F11D858D90E008958FEF9FEF0895FC0199
:10049000918D228D892F90E0805C9F4F821B910966
:1004A0008F739927089589E092E00E94470221E026
:1004B000892B09F420E0822F089580E090E0892BB9
:1004C00029F00E94530281110C9400000895FC0150
:1004D000A48DA80FB92FB11DA35ABF4F2C91848DA5
:1004E00090E001968F739927848FA689B7892C9302
:1004F000A089B1898C91837080648C93938D848D55
:10050000981306C00288F389E02D80818F7D808357
:100510000895EF92FF920F931F93CF93DF93EC0117
:1005200081E0888F9B8D8C8D98131AC0E889F9899A
:10053000808185FF15C09FB7F894EE89FF8960839D
:10054000E889F98980818370806480839FBF81E01E
:1005500090E0DF91CF911F910F91FF90EF90089560
:10056000F62E0B8D10E00F5F1F4F0F731127E02E3B
:100570008C8D8E110CC00FB607FCFACFE889F98973
:10058000808185FFF5CFCE010E946702F1CFEB8D10
:10059000EC0FFD2FF11DE35AFF4FF0829FB7F89447
:1005A0000B8FEA89FB8980818062CFCFCF93DF9365
:1005B000EC01888D8823B9F0AA89BB89E889F9897B
:1005C0008C9185FD03C0808186FD0DC00FB607FCB0
:1005D000F7CF8C9185FFF2CF808185FFEDCFCE01E3
:1005E0000E946702E9CFDF91CF9108952091E30146
:1005F0003091E4012817390771F49091E10180915D
:10060000E201981741F0E091E101F0E0E456FE4F7D
:10061000808190E008958FEF9FEF08950895EF9205
:10062000FF920F931F93CF93DF93DC015C96ED90C5
:10063000FC905D97E114F10479F481E090E0139669
:100640009C938E93129790E080E0DF91CF911F9161
:100650000F91FF90EF9008955196ED91FC91529774
:1006600050968C915097982F90950FB75E962C913D
:100670005E97122F127021FD6095F894208111234E
:1006800019F1282B2083E7012197F1F728E0462F65
:1006900050E0308160FF1AC0382B3083E70121978A
:1006A000F1F7BA0175956795215089F7112381F00B
:1006B0008081892380830FBF5C968D919C910197E7
:1006C000F1F781E090E0C1CF2923DCCF3923E5CFDA
:1006D0009081892BEFCF2091E3013091E40128171D
:1006E000390761F48091E2012091E10190E0805CA2
:1006F0009F4F821B91098F739927089590E080E0A6
:1007000008952091E3013091E40128173907B9F4E5
:100710009091E1018091E201981789F0E091E10167
:10072000F0E0E456FE4F80812091E10130E02F5F40
:100730003F4F2F7333272093E10190E008958FEF0F
:100740009FEF089590E080E00895CF92DF92EF92BE
:10075000FF92CF93DF93EC01603282E07807CCF513
:10076000653B710514F064EB70E0898128E830E0A6
:10077000281B310987FD3395220F331F220F331FAA
:100780006901330FEE08FF088A8128E532E0281B53
:10079000310987FD3395220F331F220F331F032E9C
:1007A000000C440B550B2C193D094E095F09DB0168
:1007B00077FF02C0B0E0A0E00E94BB0F24EB30E066
:1007C00040E050E00E94910FC20ED31EE41EF51EC1
:1007D000B601E881EC3070F5298188E890E0821B51
:1007E000910927FD9395880F991F880F991F681706
:1007F00079077CF02A8188E592E0821B910927FD28
:100800009395880F991F880F991F681779070CF423
:10081000CB010297880F991F4FB7F8942E2F30E025
:10082000F901EE0FFF1FE20FF31FEB51FE4F928312
:1008300081834FBFDF91CF91FF90EF90DF90CF90FA
:100840000895CF93DF93EC01EE85FF85309709F093
:1008500009958FB7F8944091D1025091D2026091DE
:10086000D3027091D4028FBF4E835F8368877987EC
:100870008A819B81AC81BD81840F951FA61FB71F04
:100880008A879B87AC87BD87DF91CF9108950F93AF
:100890001F93FC010285138524853585401B510B70
:1008A000620B730B80E077FF80891F910F91089591
:1008B0002FB7F8944091D1025091D2026091D302A7
:1008C0007091D4022FBF0C944704CF93DF93EEEDC9
:1008D000F0E08491EAE1F1E0D491E6E0F1E0C49146
:1008E00070E060E0CC2399F081110E94F000EC2FC1
:1008F000F0E0EE0FFF1FEB51FF4FA591B491EC918B
:10090000ED2391E080E009F490E0692F782F81E0F9
:1009100068278DE0DF91CF910C941901CF93DF937D
:10092000FC01248135816217730788F49B01C08123
:10093000D1816CE270E0CE01820F931F0E943A12C7
:10094000009729F08C1B9D0BDF91CF9108958FEFBD
:100950009FEFFACFFC0180819181009711F00C94F8
:10096000450F60E070E0CB0108952F923F924F92C7
:100970005F926F927F928F929F92AF92BF92CF922F
:10098000DF92EF92FF920F931F93CF93DF9300D0EC
:1009900000D0CDB7DEB7FC0144805580411451042E
:1009A00009F412C1FB01648075806114710409F4BB
:1009B0000BC17A016B019C838B83FA01A480B58003
:1009C000A618B708FC0100811181A114B104B9F483
:1009D000F60160817181C8010E9463128C01009749
:1009E00009F4F2C0F70160817181448155810E9450
:1009F0001F12F70184819581080F191FE9CFB7FCF9
:100A000010C0FB01208031804201C801B1010E9469
:100A10006312009709F44EC0860D971D8A0C9B1C2B
:100A2000F5CF3801F60160817181C8010E9463121F
:100A30002C01009729F14C01801A910AA401B801F8
:100A4000C3010E941F12680C791CF701608171813B
:100A500044815581C3010E941F12F7018480958053
:100A6000680C791CF60104811581040D151DEB81BC
:100A7000FC81848195818A0D9B1D95838483D2CFCF
:100A8000B801C3010F900F900F900F90DF91CF919D
:100A90001F910F91FF90EF90DF90CF90BF90AF909C
:100AA0009F908F907F906F905F904F903F902F908E
:100AB0000C944E124814590409F486C0EB81FC8151
:100AC000828193818815990578F4B4016F5F7F4F17
:100AD000C8010E946211009709F476C0EB81FC8185
:100AE0009183808393828282EB81FC8104811581D2
:100AF0000150110917FD68C03801F60124803580C6
:100B00002114310409F460C0EB81FC81848095805C
:100B10008114910409F458C08214930408F454C059
:100B20000815190520F03401F1E06F1A7108EB8106
:100B3000FC8140805180C2010FEF1FEF9201260D12
:100B4000371D3A832983E981FA81E817F90788F08C
:100B5000F601608171810E946312009751F09C013F
:100B6000241935096216730608F498010196890163
:100B7000EACF17FD29C0200E311EC201820D931D40
:100B8000A40142195309BC018A0D9B1D0E94281221
:100B9000EB81FC81848195818A0D9B1D95838483E3
:100BA00020813181820F931FFC011082EB81FC8137
:100BB00080819181F7016081718144815581800F2D
:100BC000911F0E941F1294CF0F900F900F900F90C3
:100BD000DF91CF911F910F91FF90EF90DF90CF9019
:100BE000BF90AF909F908F907F906F905F904F904D
:100BF0003F902F9008950F931F93CF93DF93EC01B5
:100C000088819981009759F02A813B8126173707FF
:100C100030F081E0DF91CF911F910F9108958B010A
:100C20006F5F7F4F0E946211009759F0998388830C
:100C30001B830A832C813D81232B59F7FC011082F1
:100C4000E8CF80E0E7CFFB0101900020E9F7319782
:100C5000AF01461B570BDC01ED91FC910280F38143
:100C6000E02D0994CF93DF93FC014481558160818D
:100C7000718189E092E00E94E901EC0164E371E096
:100C800089E092E00E9423068C0F9D1FDF91CF9197
:100C90000895EF92FF920F931F93CF93DF938C01F0
:100CA0007B01D0E0C0E0F701EC0FFD1F64916623EB
:100CB00061F0D801ED91FC910190F081E02DC80127
:100CC0000995892B11F02196EECF64E371E0C801FC
:100CD0000E9423068C0F9D1FDF91CF911F910F91D2
:100CE000FF90EF900895FC0124813581FB01448140
:100CF000558124173507A0F0FC0180819181009770
:100D000079F0FB01608171816115710549F0241B47
:100D1000350B820F931F0E94451221E0892B09F0A9
:100D200020E0822F0895FB0144815581FC0124813C
:100D300035812417350778F080819181009759F02B
:100D4000FB01608171816115710529F00E945512C6
:100D500021E0892B09F020E0822F08950F931F9343
:100D6000CF93DF938C01EB01FC018081918100978F
:100D7000E1F06881798161157105A9F042815381A3
:100D80002C813D814217530770F00E944E128C81D6
:100D90009D81F801958384831D821C82DF91CF9110
:100DA0001F910F9108950E94D91088819981F801AF
:100DB000918380838A819B81938382838C819D81AF
:100DC00095838483198218821B821A82E5CFCF9380
:100DD000DF93EC0188819981009711F00E94D9106E
:100DE000198218821D821C821B821A82DF91CF9188
:100DF0000895EF92FF920F931F93CF93DF93EC012F
:100E00007B01198218821B821A821D821C82FB01BF
:100E100001900020E9F731978F01061B170BB801ED
:100E20000E94FB05811109C0CE01DF91CF911F9176
:100E30000F91FF90EF900C94E7061D830C83B70190
:100E400088819981DF91CF911F910F91FF90EF9051
:100E50000C944E129F92AF92BF92CF92DF92EF927C
:100E6000FF920F931F93CF93DF937C016B015A0185
:100E700089012417350720F48B2D5901042F182FD1
:100E800066E371E0C7010E94F906D6011496CD9180
:100E9000DC91AC16BD0650F50C171D0708F4E801EF
:100EA000D601ED91FC911197EC0FFD1F90801082FF
:100EB0000D911C910A0D1B1D0115110571F0F80112
:100EC00001900020E9F731975F01A01AB10AB5013E
:100ED000C7010E94FB05811116C0C7010E94E706E9
:100EE000D6018D919C91C80FD91F9882C701DF91BF
:100EF000CF911F910F91FF90EF90DF90CF90BF9017
:100F0000AF909F900895F701B582A482B8018081C7
:100F100091810E944E12E4CFFC0180819181009763
:100F200011F00C94D9100895EF92FF920F931F9334
:100F3000CF93DF93EC018B01198218821B821A82F6
:100F40001D821C82CB010E94730F7C01BC01CE016B
:100F50000E94FB05811109C0CE01DF91CF911F9145
:100F60000F91FF90EF900C94E706FD82EC82B801A0
:100F700088819981DF91CF911F910F91FF90EF9020
:100F80000C946C0F6F927F928F929F92AF92BF9250
:100F9000CF92DF92EF92FF920F931F93CF93DF9345
:100FA000CDB7DEB7E2970FB6F894DEBF0FBECDBF68
:100FB00086EA92E00E946B03181619060CF0E9C14C
:100FC00086EA92E00E94F602009198011091990140
:100FD000019679F086EA92E00E948103F801E858D0
:100FE000FE4F80830F5F1F4F10939901009398016C
:100FF000E7CF80917801833209F0CBC180917901EC
:10100000833209F0C6C1F801E958FE4F808186326B
:1010100009F0BFC168E771E0CE018D960E94F90624
:1010200062EA70E08E010F5F1F4FC8010E949407B3
:10103000B801CE018D960E949306F82EC8010E9439
:101040008C07FF2009F422C166E371E0C8010E9409
:10105000F90666E970E0CE0181960E949407A80126
:10106000BE016F5D7F4FCE018D960E94B504CE010B
:1010700081960E948C07C8010E948C0766E371E08C
:10108000C8010E94F90664E970E0CE0181960E94D1
:101090009407A801BE016F5D7F4FCE018D960E941F
:1010A000B504CE0181960E948C07C8010E948C076E
:1010B00062E970E0C8010E949407B801CE018D96E4
:1010C0000E949306FF24F3948823A9F060E970E05E
:1010D000CE0181960E949407BE016F5D7F4FCE01C5
:1010E0008D960E947306FF24F3948111F12CCE019A
:1010F00081960E948C07C8010E948C076BE870E003
:10110000F11033C129A93AA92150310941E050E039
:10111000BE01635D7F4FCE0187960E942A07CE01F4
:1011200087960E94320670E060E0CE0187960E94AA
:101130008E046C019C0150E040E0BE01695D7F4F70
:10114000CE0181960E942A07CE0181960E94AA04B0
:101150005B018FEFC81AD80AB601CE0187960E94AC
:101160008E047C019C01A601BE01695D7F4FC80110
:101170000E942A07B801CE0181960E94AE06C801DE
:101180000E948C07CE0181960E94AA04762E872E9B
:101190009FEFE91AF90AB701CE0187960E948E04E3
:1011A0006C019C01A701BE01695D7F4FC8010E94CF
:1011B0002A07B801CE0181960E94AE06C8010E949E
:1011C0008C07CE0181960E94AA04662E972E2FEFDF
:1011D000C21AD20AB601CE0187960E948E049C01E3
:1011E000A601BE01695D7F4FC8010E942A07B801B0
:1011F000CE0181960E94AE06C8010E948C07CE01E6
:1012000081960E94AA047B01FF926F939F926F9236
:101210008F927F92BF92AF9287E391E09F938F93DB
:101220001F9280E28F931F930F930E947D12B8014B
:1012300089E092E00E94230664E371E089E092E095
:101240000E942306B5018EEC92E00E94A503672D53
:10125000782D8BEC92E00E94A503662D792D88EC09
:1012600092E00E94A503B70185EC92E00E94A503DD
:10127000CE0181960E948C07CE0187960E948C0732
:101280000FB6F894DEBF0FBECDBF73C06FE770E03E
:10129000C8010E949407B801CE018D960E94930662
:1012A000F82EC8010E948C07FF2009F428C166E3CC
:1012B00071E0C8010E94F90663E770E0CE018196F3
:1012C0000E949407A801BE016F5D7F4FCE018D96ED
:1012D0000E94B504CE0181960E948C07C8010E942D
:1012E0008C0766E371E0C8010E94F90661E770E0CF
:1012F000CE0181960E949407A801BE016F5D7F4FC9
:10130000CE018D960E94B504CE0181960E948C0775
:10131000C8010E948C076FE670E0C8010E94940724
:10132000B801CE018D960E949306FF24F394882382
:10133000A9F06DE670E0CE0181960E949407BE018F
:101340006F5D7F4FCE018D960E947306FF24F3944C
:101350008111F12CCE0181960E948C07C8010E9458
:101360008C07FF2059F168E670E089E092E00E9466
:101370004906CE018D960E948C0710929901109219
:101380009801E8E7F1E088E991E011928E179F0754
:10139000E1F7E2960FB6F894DEBF0FBECDBFDF9146
:1013A000CF911F910F91FF90EF90DF90CF90BF9062
:1013B000AF909F908F907F906F90089529A93AA940
:1013C0002150310941E050E0BE01635D7F4FCE0105
:1013D00087960E942A07CE0187960E94320670E007
:1013E00060E0CE0187960E948E046C019C0150E063
:1013F00040E0BE01695D7F4FCE0181960E942A07C1
:10140000CE0181960E94AA04B62EA72E9FEFC91A7C
:10141000D90AB601CE0187960E948E047C019C01F8
:10142000A601BE01695D7F4FC8010E942A07B8016D
:10143000CE0181960E94AE06C8010E948C07CE01A3
:1014400081960E94AA04962E872E2FEFE21AF20AA6
:10145000B701CE0187960E948E046C019C01A70102
:10146000BE01695D7F4FC8010E942A07B801CE0105
:1014700081960E94AE06C8010E948C07CE0181961B
:101480000E94AA04762E672E8FEFC81AD80AB601DA
:10149000CE0187960E948E049C01A601BE01695D63
:1014A0007F4FC8010E942A07B801CE0181960E9491
:1014B000AE06C8010E948C07CE0181960E94AA0444
:1014C0007F936F936F927F928F929F92AF92BF9212
:1014D00087E591E09F938F931F9280E28F931F93F4
:1014E0000F930E947D12B80189E092E00E942306CA
:1014F00064E371E089E092E00E942306B9CECE0158
:101500008D960E94320635CF1F920F920FB60F9222
:1015100011242F933F938F939F93AF93BF93809109
:10152000D1029091D202A091D302B091D402309115
:10153000E00123E0230F2D3758F50196A11DB11DC1
:101540002093E0018093D1029093D202A093D30222
:10155000B093D4028091DC019091DD01A091DE0175
:10156000B091DF010196A11DB11D8093DC01909324
:10157000DD01A093DE01B093DF01BF91AF919F9198
:101580008F913F912F910F900FBE0F901F90189544
:1015900026E8230F0296A11DB11DD2CF1F920F92F4
:1015A0000FB60F9211242F933F934F935F936F9336
:1015B0007F938F939F93AF93BF93EF93FF9389E0B4
:1015C00092E00E946702FF91EF91BF91AF919F91CE
:1015D0008F917F916F915F914F913F912F910F90DC
:1015E0000FBE0F901F9018951F920F920FB60F927B
:1015F00011242F938F939F93EF93FF93E091190200
:10160000F0911A028081E0911F02F091200282FD88
:101610001BC09081809122028F5F8F7320912302E3
:10162000821741F0E0912202F0E0E75FFD4F958FD5
:1016300080932202FF91EF919F918F912F910F90B4
:101640000FBE0F901F9018958081F4CF1F920F92BC
:101650000FB60F9211242F933F934F935F936F9385
:101660007F938F939F93AF93BF93EF93FF93E091FB
:10167000E301F091E401309749F0A685B7858585AF
:10168000968D91FF14C09C918923A1F4FF91EF9155
:10169000BF91AF919F918F917F916F915F914F918A
:1016A0003F912F910F900FBE0F901F9018959C9116
:1016B000892361F7A389B4899C91858980958923C1
:1016C0008C93868997890197F1F7608D718DA68536
:1016D000B785558538E020E0CB010197F1F7822FDF
:1016E00090E095958795282F4C91452309F0206827
:1016F000315091F7868D81FD20958091E20190E037
:1017000001968F7399273091E101381799F0A091D4
:10171000E201B0E0A456BE4F2C938093E201828D8B
:10172000938D0197F1F7A389B4898C919589892BC1
:101730008C93ACCF868D8160868FF1CF1F920F92F4
:101740000FB60F9211242F933F934F935F936F9394
:101750007F938F939F93AF93BF93CF93DF93EF9339
:10176000FF9380919A01C0919B01D0E087FF24C034
:10177000109285001092840080919A018F5F80936F
:101780009A0180919A01082E000C990B8C179D07E5
:1017900024F480919A018C30C4F18091840090915E
:1017A0008500049680349C4908F47AC080918400B6
:1017B00090918500049676C080919A01082E000CC5
:1017C000990B8C179D07C4F6E0919A018E2FEE0FAE
:1017D000990BFC01EE0FFF1FE80FF91FEB51FE4FB5
:1017E000808186FFC9CFE0919A018E2FEE0F990B71
:1017F000FC01EE0FFF1FE80FF91FEB51FE4F808138
:1018000060E08F730E941901B7CF2091840030915E
:101810008500E0919A018E2FEE0F990BFC01EE0FDF
:10182000FF1FE80FF91FEB51FE4F81819281820F5C
:10183000931F9093890080938800E0919A018E2FE6
:10184000EE0F990BFC01EE0FFF1FE80FF91FEB5194
:10185000FE4F808186FF11C0E0919A018E2FEE0F1E
:10186000990BFC01EE0FFF1FE80FF91FEB51FE4F24
:10187000808161E08F730E941901FF91EF91DF91E8
:10188000CF91BF91AF919F918F917F916F915F9118
:101890004F913F912F910F900FBE0F901F90189571
:1018A00080E49CE990938900809388008FEF809377
:1018B0009A01E3CFFC0190919B019C3098F481E068
:1018C000890F80939B019083892F90E0FC01EE0F9C
:1018D000FF1FE80FF91FEB51FE4F88EB9BE092834F
:1018E000818308958FEF80830895CF92DF92EF92E6
:1018F000FF9210920C0210920B0298EEC92E93E008
:10190000D92EE12CF12CC0920D02D0920E02E09261
:101910000F02F09210028AE091E090930A02809305
:10192000090285EC90E0909316028093150284ECF6
:1019300090E0909318028093170280EC90E09093CF
:101940001A028093190281EC90E090931C0280931C
:101950001B0282EC90E090931E0280931D0286ECA5
:1019600090E09093200280931F0210922202109226
:10197000230210922402109225028EEC92E00E9423
:101980005A0C8BEC92E00E945A0C88EC92E00E9478
:101990005A0C85EC92E00E945A0C1092A902109207
:1019A000A802C092AA02D092AB02E092AC02F092DE
:1019B000AD028CE191E09093A7028093A602109271
:1019C000BD021092BC021092BF021092BE02109291
:1019D000C1021092C0021092C3021092C202609122
:1019E000C4026E7F6D7F6093C4026695617081E072
:1019F00068278FE00E94190161E08FE00E94470193
:101A0000ECE1F1E0E491E093B602E8E0F1E0E4918A
:101A1000F0E0EE0FFF1FE151FF4F859194919093FD
:101A2000B8028093B70260E08EE00E944701809187
:101A3000C40281FD04C061E08EE00E9419018EE0C5
:101A40008093B202EBE1F1E0E491E093B302E7E0CE
:101A5000F1E0E491F0E0EE0FFF1FEB51FF4F8591B5
:101A600094919093B5028093B4022EE231E03093CA
:101A7000E9022093E80281E08093F8021092F702D5
:101A80001092F6021092F2021092F3021092F402F7
:101A90001092F5029FB7F8944091D1025091D20272
:101AA0006091D3027091D4029FBF4093EE02509395
:101AB000EF026093F0027093F102E8EEF2E0F0932F
:101AC000FA02E093F9021092EA021092EB021092ED
:101AD000EC021092ED024093F2025093F3026093F5
:101AE000F4027093F5023093D6022093D5028093CE
:101AF000E5021092E4021092E3021092DF021092CB
:101B0000E0021092E1021092E2022FB7F894809165
:101B1000D1029091D202A091D302B091D4022FBFF2
:101B20008093DB029093DC02A093DD02B093DE028F
:101B300025ED32E03093E7022093E6021092D702BF
:101B40001092D8021092D9021092DA028093DF022A
:101B50009093E002A093E102B093E202FF90EF9035
:101B6000DF90CF900895789484B5826084BD84B569
:101B7000816084BD85B5826085BD85B5816085BD88
:101B800080916E00816080936E0010928100809140
:101B900081008260809381008091810081608093C8
:101BA0008100809180008160809380008091B100ED
:101BB00084608093B1008091B00081608093B00018
:101BC00080917A00846080937A0080917A008260AC
:101BD00080937A0080917A00816080937A0080916E
:101BE0007A00806880937A001092C100E091190217
:101BF000F0911A0282E08083E0911502F0911602C2
:101C00001082E0911702F09118028FEC80831092FD
:101C10002102E0911D02F0911E0286E08083E09196
:101C20001B02F0911C02808180618083E0911B0285
:101C3000F0911C02808188608083E0911B02F0910A
:101C40001C02808180688083E0911B02F0911C025D
:101C500080818F7D80836DEB70E089E092E00E944F
:101C600049061092C1021092C0021092BF02109257
:101C7000BE021092BD021092BC028DE991E09093D9
:101C8000C3028093C2029091B202963108F047C01D
:101C90002DEB30E03093BD022093BC022BE931E004
:101CA0003093BF022093BE022CE231E03093C10298
:101CB0002093C0022091680084E0983048F031E021
:101CC0009E3008F430E081E001C0880F3A95EAF7D1
:101CD000822B809368002DE630E0983050F02BE6A0
:101CE00030E09E3030F02CE630E0963110F030E0FD
:101CF00020E03093BA022093B902292F30E09830C7
:101D000008F09AC081E001C0880F9A95EAF78093A5
:101D1000BB028091C2029091C3020197F1F70E9429
:101D2000BD000E94BD006EEA70E086EA92E00E946B
:101D3000490682EC97E09093F7028093F60288ECD4
:101D400090E0A0E0B0E08093EA029093EB02A093D1
:101D5000EC02B093ED028091EE029091EF02A0911F
:101D6000F002B091F10288539F4FAF4FBF4F809365
:101D7000F2029093F302A093F402B093F50285E689
:101D800094E09093E4028093E30284EF91E0A0E07A
:101D9000B0E08093D7029093D802A093D902B09379
:101DA000DA028091DB029091DC02A091DD02B09119
:101DB000DE028C509E4FAF4FBF4F8093DF02909357
:101DC000E002A093E102B093E20265E070E08EECE5
:101DD00092E00E94780166E070E08BEC92E00E9455
:101DE000780169E070E088EC92E00E9478016AE096
:101DF00070E085EC92E00E947801C0E0D0E088EECF
:101E000092E00E945804882321F088EE92E00E941C
:101E1000210485ED92E00E945804882321F085ED8D
:101E200092E00E942104209751F30E9453028823DC
:101E300031F30E940000E3CF9E3040F42850310976
:101E400081E001C0880F2A95EAF761CF2E50310951
:101E5000F7CF8CE191E09093A7028093A602809146
:101E6000E3019091E401865A924071F4E091B90245
:101E7000F091BA0290818091BB0280958923808382
:101E80001092E4011092E30108951F93FC01992739
:101E90008827BC01E89411911032E9F3193010F051
:101EA0001E30C8F31B3251F01D3249F4689406C04D
:101EB0000E947C0F610F711D811D911D11911053A6
:101EC0001A30B0F33EF490958095709561957F4FF0
:101ED0008F4F9F4F1F910895FB01DC0105900D92DC
:101EE0000020E1F70895FC0105900020E9F78095B6
:101EF00090958E0F9F1F0895592F482F372F262F0B
:101F0000660F771F881F991F660F771F881F991FFD
:101F1000620F731F841F951F660F771F881F991FFD
:101F20000895052E97FB1EF400940E94A80F57FDFC
:101F300007D00E94FA0F07FC03D04EF40C94A80FB0
:101F400050954095309521953F4F4F4F5F4F0895E5
:101F500090958095709561957F4F8F4F9F4F089515
:101F60000E941C10A59F900DB49F900DA49F800D02
:101F7000911D11240895B7FF0C94B00F0E94B00F6B
:101F8000821B930B08952F923F924F925F926F9214
:101F90007F928F929F92AF92BF92CF92DF92EF92F9
:101FA000FF920F931F93CF93DF93CDB7DEB7CA1B7A
:101FB000DB0B0FB6F894DEBF0FBECDBF09942A88A5
:101FC000398848885F846E847D848C849B84AA844D
:101FD000B984C884DF80EE80FD800C811B81AA81DA
:101FE000B981CE0FD11D0FB6F894DEBF0FBECDBFA5
:101FF000ED010895A1E21A2EAA1BBB1BFD010DC025
:10200000AA1FBB1FEE1FFF1FA217B307E407F507A8
:1020100020F0A21BB30BE40BF50B661F771F881F84
:10202000991F1A9469F760957095809590959B011A
:10203000AC01BD01CF010895A29FB001B39FC001C3
:10204000A39F700D811D1124911DB29F700D811DE4
:102050001124911D0895991B79E004C0991F9617CA
:1020600008F0961B881F7A95C9F780950895EE0FA2
:10207000FF1F0590F491E02D09940F931F93CF93C8
:10208000DF938230910510F482E090E0E091FD0250
:10209000F091FE0230E020E0B0E0A0E0309799F44B
:1020A0002115310509F44AC0281B390B24303105AC
:1020B000D8F58A819B816115710589F1FB019383B4
:1020C0008283FE0111C04081518102811381481732
:1020D0005907E0F04817590799F4109761F01296E4
:1020E0000C93129713961C933296CF01DF91CF91E8
:1020F0001F910F9108950093FD021093FE02F4CFFB
:102100002115310551F04217530738F0A901DB01C1
:102110009A01BD01DF01F801C1CFEF01F9CF909322
:10212000FE028093FD02CDCFFE01E20FF31F8193EB
:1021300091932250310939832883D7CF2091FB0214
:102140003091FC02232B41F42091020130910301D4
:102150003093FC022093FB02209100013091010199
:102160002115310541F42DB73EB74091040150913E
:102170000501241B350BE091FB02F091FC02E217F4
:10218000F307A0F42E1B3F0B2817390778F0AC019A
:102190004E5F5F4F2417350748F04E0F5F1F509377
:1021A000FC024093FB02819391939FCFF0E0E0E02B
:1021B0009CCFCF93DF930097E9F0FC013297138215
:1021C0001282A091FD02B091FE02ED0130E020E00C
:1021D0001097A1F420813181820F931F2091FB027F
:1021E0003091FC022817390709F061C0F093FC0216
:1021F000E093FB02DF91CF910895EA01CE17DF074C
:10220000E8F54A815B819E0141155105B1F7E9016D
:10221000FB83EA8349915991C40FD51FEC17FD0741
:1022200061F4808191810296840F951FE901998361
:102230008883828193819B838A83F0E0E0E0129619
:102240008D919C9113970097B9F52D913C91119721
:10225000CD010296820F931F2091FB023091FC0268
:102260002817390739F6309751F51092FE0210926F
:10227000FD02B093FC02A093FB02BCCFD383C283C8
:1022800040815181840F951FC817D90761F44E5FB3
:102290005F4F88819981480F591F518340838A81FC
:1022A0009B81938382832115310509F0B0CFF09390
:1022B000FE02E093FD029ECFFD01DC01C0CF138240
:1022C0001282D7CFB0E0A0E0E8E6F1E10C94C50FB0
:1022D0008C01009751F4CB010E943D108C01C80184
:1022E000CDB7DEB7E0E10C94E10FFC01E60FF71F7C
:1022F0009C0122503109E217F30708F49DC0D9016F
:10230000CD91DC911197C617D70798F0C530D1054C
:1023100030F3CE0104978617970708F3C61BD70B37
:102320002297C193D1936D937C93CF010E94D910D2
:10233000D6CF5B01AC1ABD0A4C018C0E9D1EA0913C
:10234000FD02B091FE02512C412CF12CE12C109792
:1023500031F58091FB029091FC028815990509F0F6
:102360005CC04616570608F058C080910001909155
:102370000101009741F48DB79EB74091040150913F
:102380000501841B950BE817F90708F055C0F09379
:10239000FC02E093FB02F90171836083A0CF8D9171
:1023A0009C91119712966C90129713967C901397AC
:1023B000A815B90559F56C0142E0C40ED11CCA1428
:1023C000DB0420F1AC014A195B09DA01129615977A
:1023D00080F06282738251834083D9016D937C9334
:1023E000E114F10471F0D7011396FC93EE93129768
:1023F00076CF22968C0F9D1FF90191838083F30184
:10240000EFCFF093FE02E093FD0269CF4816590624
:1024100008F42C017D01D3019ACFCB010E943D101D
:102420007C01009749F0AE01B8010E941F12C8015B
:102430000E94D910870153CF10E000E050CFFB017C
:10244000DC0102C001900D9241505040D8F7089530
:102450006817790768F4FB01DC01E40FF51FA40F8E
:10246000B51F02C002900E9241505040D8F7089517
:102470000C941F12FC018191861721F08823D9F753
:10248000992708953197CF010895FB01DC018D91C3
:10249000019080190110D9F3990B0895FB01DC011B
:1024A00001900D920020E1F70895FB01DC014150FD
:1024B000504030F08D910190801919F40020B9F747
:1024C000881B990B0895FB0151915523A9F0BF0179
:1024D000DC014D9145174111E1F759F4CD0101900F
:1024E000002049F04D9140154111C9F3FB01411104
:1024F000EFCF81E090E001970895AEE0B0E0E3E82F
:10250000F2E10C94D10F0D891E898F89988D26E0F8
:102510002C831A83098397FF02C080E090E801971B
:102520009E838D83AE01455E5F4F698D7A8DCE01AE
:1025300001960E94AD124D815E8157FD0AC02F8128
:102540003885421753070CF49A01020F131FF80144
:1025500010822E96E4E00C94ED0FABE0B0E0E3EBDC
:10256000F2E10C94C30F7C013B018A01FC0117824C
:102570001682838181FFC8C1CE0101965C01F701FB
:102580009381F30193FD859193FF81913F0188230E
:1025900009F453C1853239F493FD859193FF8191FC
:1025A0003F01853229F4B70190E00E949D14E7CFE6
:1025B000912C212C312CFFE1F31538F08B3211F1E5
:1025C00090F4803209F1833229F137FC3CC020EDD0
:1025D000280F2A3050F536FE20C08AE0989E200D44
:1025E0001124922E06C08D3291F0803371F76894D9
:1025F00030F8F30193FD859193FF81913F018111A3
:10260000DACF21C0689431F8689432F8F2CF689438
:1026100033F8EFCF689434F8ECCFEAE02E9E200D2B
:102620001124222E689435F8E4CF8E3229F436FC3A
:1026300004C1689436F8DDCF8C3619F4689437F805
:10264000D8CF8836B1F2982F9F7D95549330E0F023
:102650008336A1F18337C1F1833509F063C02801C6
:10266000F2E04F0E511CF801C080D180692D70E05E
:1026700036FC02C06FEF7FEFC6010E9487144C0149
:10268000689437F882010AC00C5F1F4FFFE3F9839B
:1026900088248394912C6501E89437F833FE2DC08B
:1026A000522C8114910471F5552009F468CFB701BB
:1026B00080E290E00E949D145A94F6CFF801808148
:1026C00089830E5F1F4FE4CF2801F2E04F0E511CAB
:1026D000F801C080D180692D70E036FC02C06FEF38
:1026E0007FEFC6010E9492144C018201D5CFB70141
:1026F00080E290E00E949D142A942814190409F0A5
:10270000B0F7CECFF60137FC859137FE81916F018E
:10271000B70190E00E949D1451105A94F1E08F1A75
:102720009108BFCF843619F0893609F077C0F801D7
:1027300037FE6BC060817181828193810C5F1F4F76
:10274000F32DFF763F2E97FF09C0909580957095E9
:1027500061957F4F8F4F9F4F689437F82AE030E0A4
:10276000A5010E94CD14C82ECA188C2C432C36FE0D
:102770000CC0E89440F8C91440F434FE05C032FCA3
:1027800003C0F32DFE7E4F2E892C44FE95C0FE0122
:10279000EC0DF11D8081803309F087C0242D297E46
:1027A000422E842D8870582E43FC95C040FE8FC069
:1027B0009C2C821418F42C0C922C981844FE91C076
:1027C000B70180E390E00E949D1442FE09C088E7B3
:1027D00090E041FE02C088E590E0B7010E949D14A0
:1027E000C91408F48AC0CA94D12C9FEFC91AD90A17
:1027F000CA0CDB1CF60182916F01B70190E00E94C8
:102800009D14AC14BD04B1F74FCF60817181072EC8
:10281000000C880B990B0E5F1F4F92CFD32CE894BE
:10282000D4F82AE030E0853739F1232D297FD22EE4
:102830008F3601F148F48835A9F0F7018681978138
:102840002B96E2E10C94DF0F803749F08837A9F727
:10285000D4FE02C06894D2F820E130E00DC0689444
:10286000D4F8F6CF34FE03C0822F8660D82E20E144
:1028700032E002C028E030E0F801D7FE0FC06081EE
:102880007181828193810C5F1F4FA5010E94CD143D
:10289000C82ECA183D2CE89437F867CF6081718143
:1028A00090E080E00E5F1F4FF0CF42FC02C08394A7
:1028B00078CF8394839475CF842D867809F471CF73
:1028C000F6CFB70180E290E00E949D1483948214B9
:1028D000C0F3512C73CF522C5818821408F46ECFC9
:1028E000F8CF842D867809F47BCF8BE241FE80E21D
:1028F00047FC8DE2B70190E071CFB70180E390E033
:102900000E949D149A946CCF8FEF9FEF99CFFC019A
:102910000590615070400110D8F7809590958E0F0A
:102920009F1F0895FC016150704001900110D8F77D
:10293000809590958E0F9F1F08950F931F93CF93AF
:10294000DF93182F092FEB018B8181FD09C01FEF49
:102950000FEF812F902FDF91CF911F910F9108954D
:1029600082FF14C02E813F818C819D8128173907F9
:102970003CF4E881F981CF01019699838883108323
:102980008E819F8101969F838E83E3CFE885F985B1
:10299000812F0995892BA1F3DACFFA01AA272830D4
:1029A00051F1203181F1E8946F936E7F6E5F7F4F1C
:1029B0008F4F9F4FAF4FB1E03ED0B4E03CD0670F98
:1029C000781F891F9A1FA11D680F791F8A1F911DEB
:1029D000A11D6A0F711D811D911DA11D20D009F43B
:1029E00068943F912AE0269F11243019305D31937D
:1029F000DEF6CF010895462F4770405D4193B3E066
:102A00000FD0C9F7F6CF462F4F70405D4A3318F00C
:102A1000495D31FD4052419302D0A9F7EACFB4E0BD
:102A2000A6959795879577956795BA95C9F7009775
:102A30006105710508959B01AC010A2E0694579516
:102A4000479537952795BA95C9F7620F731F841F6D
:102A5000951FA01D089510E0C2E9D0E004C0FE015A
:102A60000E9437102196C339D107C9F7F894FFCFD8
:102A70000000FF028000000000008902E901160248
:102A8000D602470225023902000000000F03E901C7
:102A9000A2030E036B038103F60200000000D601BF
:102AA000470421040D0A00736574536572766F50F4
:102AB000574D733A202569207C202569207C2025EC
:102AC00069207C20256900736574536572766F49AF
:102AD0006E69743A202569207C202569207C202598
:082AE00069207C20256900003B
:00000001FF
