:020000040800F2
:10000000000002203152000881520008815200088D
:10001000815200088152000881520008000000004F
:1000200000000000000000000000000081520008F5
:100030008152000800000000815200089B34000833
:100040008152000881520008815200088152000844
:100050008152000881520008393500083F350008F8
:10006000453500084B35000851350008815200081D
:100070008152000881520008815200088152000814
:1000800081520008815200088152000800000000DF
:1000900000000000000000000000000057350008CC
:1000A0005D4A0008D5490008714A0008F94900086E
:1000B0000D4A0008214A0008354A0008815200080C
:1000C00081520008815200088152000881520008C4
:1000D00081520008D93F0008F13F000800000000ED
:1000E0006D350008A13800084D61000800000000CF
:1000F0000000000000000000000000008152000825
:100100000000000081520008494A0008815200089E
:1001100000000000000000000000000000000000DF
:100120008152000881520008815200088152000863
:1001300081520008000000000000000000000000E4
:100140000000000000000000000000004161000805
:1001500081520008815200088152000809400008BD
:1001600081520008815200080000000000000000D9
:10017000000000000000000000000000000000007F
:100180000000000081520008000000000000000094
:080190008152000881520008B1
:1001980010F8012B11F8013B012A28BF9A42F7D029
:1001A800D01A7047034613F8012B002AFBD1181AFE
:1001B800013870470000000001F0FF01102A2BDB16
:1001C80010F0070F08D010F8013B013A8B422DD0F0
:1001D80010F0070F42B3F6D1F0B441EA012141EA29
:1001E800014122F007047FF000070023F0E80256DF
:1001F800083C85EA010586EA010685FA47F5A3FA6F
:1002080087F586FA47F6A5FA87F68EB9EED1F0BCDF
:1002180001F0FF0102F0070232B110F8013B013A88
:1002280083EA010313B1F8D1002070470138704701
:10023800002D06BF35460338073815F0010F07D1E2
:10024800013015F4807F02BF013015F4C03F013042
:10025800F0BC0138704700BF53B94AB9002908BF3C
:1002680000281CBF4FF0FF314FF0FF3000F00CB8F2
:10027800ADF1080C6DE904CE07F05EF8DDF804E096
:10028800DDE9022304B07047704700BF10B5054C84
:10029800237833B9044B13B10448AFF3008001232A
:1002A800237010BD0C02002000000000A07600089A
:1002B80008B5034B1BB103490348AFF3008008BDE1
:1002C8000000000010020020A0760008002270B58F
:1002D80011461C481C4C1D4D00F056FB00221146CF
:1002E8001B4800F051FB61686960A168A960E1687A
:1002F800E96018492960217C297405F1110004F18D
:10030800110104F1510651F8043B40F8043BB14295
:10031800F9D1114B114A03F1400153F8040B42F88B
:10032800040B8B42F9D10E490E48642206F0F0FA0C
:10033800B4F8F830A5F8F830D4F8FC30C5F8FC303B
:1003480070BD00BF28030020BC0600202802002042
:1003580044030020587B00080D0700207902002084
:1003680050070020BC02002010B521484FF4165158
:1003780004F046FD1E4804F045FD0028FAD01D494A
:100388001B4804F02FFC06221B484FF4165103F0BB
:10039800FBFF1A49184804F025FC1949194800F0D0
:1003A80009FB1848C82100F0D7FA1749174800F088
:1003B80001FB16484FF4FA7100F0CEFAB4235A2222
:1003C8000521134800F088FBB4235A22062111485E
:1003D80000F082FBB4235A2209210F4800F07CFB6D
:1003E800BDE810400D48B4235A220A2100F074BB1E
:1003F800DC070020B876000828020020C276000832
:1004080021090008280300204909000844030020A6
:100418008203002085030020880300208B0300202E
:1004280008B506F083F80146094800F09AFA10B1B9
:10043800074800F09DFA06F079F80146054800F0F3
:1004480090FA20B1BDE80840024800F091BA08BD12
:100458002803002044030020054B064900221A8087
:100468002023013B9BB201F8012B002BF9D17047E7
:100478006003002062030020094A0A4BB2F90020F9
:1004880059781A441B7812F8010C232B06D123291A
:1004980004D1A0F126035842584170470020704704
:1004A8006003002062030020F0B58DB0CDE9012380
:1004B80007460E4615461C460D4A00910346202164
:1004C80004A806F017FB04A90A4804F09FFB0A4891
:1004D800394600F08BFB0948314600F087FB084895
:1004E800294600F083FB0748214600F07FFB00BF48
:1004F800CF760008DC070020820300208503002057
:10050800880300208B030020F0B58DB0CDE90123CE
:1005180007460E4615461C460D4A00910346202103
:1005280004A806F0E7FA04A90A4804F06FFB0A4891
:10053800394600F05BFB0948314600F057FB084894
:10054800294600F053FB0748214600F04FFB00BF47
:10055800EF760008DC0700208203002085030020D6
:10056800880300208B030020F0B58FB0624902A8F1
:1005780004F0B1FC61490BA804F01DFD0BA902A809
:1005880004F039FD04460BA804F060FC002C00F0D0
:10059800C3805A4908A804F00EFD59490BA804F075
:1005A8009AFC0BAA08A902A804F09CFD0BA804F069
:1005B8004DFC08A804F04AFC524908A804F0FBFCCA
:1005C8004F490BA804F087FC0BAA08A902A804F05D
:1005D80089FD0BA804F03AFC08A804F037FC4A4946
:1005E80008A804F0E8FC08A902A804F004FDD0B1AA
:1005F80046490BA804F0DFFC0BA902A804F004FD8F
:10060800B0FA80F40BA8640904F020FC08A804F0F0
:100618001DFC54B13E493F4804F0E4FA02A804F036
:1006280015FC0FB0F0BD0124F0E7049B0122013B4B
:1006380002A905A804F030FD05A9364804F0DCFA43
:1006480022462C2105A804F0F4FC2246034606465F
:1006580005A908A804F020FD08A804F0C9FD721C2B
:1006680005462C2105A8019204F0E3FC019A0346F3
:10067800044605A90BA804F00FFD0BA908A804F06F
:100688006EFC0BA804F0E2FB08A804F0B1FD621CA4
:1006980006462C2105A8019204F0CBFC019A0346DA
:1006A800044605A90BA804F0F7FC0BA908A804F058
:1006B80056FC0BA804F0CAFB08A804F099FD621CBC
:1006C80007462C2105A8019204F0B3FC019A0346C1
:1006D80005A90BA804F0E0FC0BA908A804F03FFC4E
:1006E8000BA804F0B3FB08A804F082FD3A460346C1
:1006F80031462846FFF7D8FE620300200F7700082E
:10070800EA7B00081B7700081D770008227700089D
:100718001F770008DC07002060490BA804F04BFC99
:100728000BA902A804F067FC04460BA804F08EFB92
:10073800002C00F0AD80594908A804F03CFC584949
:100748000BA804F0C8FB0BAA08A902A804F0CAFC6D
:100758000BA804F07BFB08A804F078FB514908A813
:1007680004F029FC4E490BA804F0B5FB0BAA08A914
:1007780002A804F0B7FC0BA804F068FB08A804F072
:1007880065FB494908A804F016FC08A902A804F06A
:1007980032FC00287AD045490BA804F00CFC0BA9C0
:1007A80002A804F031FCB0FA80F40BA8640904F044
:1007B8004DFB08A804F04AFB002C7FF42BAF049BE8
:1007C8000122013B02A905A804F066FC05A93848E6
:1007D80004F012FA22462C2105A804F02AFC22462D
:1007E8000346064605A908A804F056FC08A804F024
:1007F800FFFC721C05462C2105A8019204F019FC87
:10080800019A0346044605A90BA804F045FC0BA968
:1008180008A804F0A4FB0BA804F018FB08A804F02F
:10082800E7FC621C06462C2105A8019204F001FC95
:10083800019A0346044605A90BA804F02DFC0BA950
:1008480008A804F08CFB0BA804F000FB08A804F02F
:10085800CFFC621C07462C2105A8019204F0E9FB95
:10086800019A034605A90BA804F016FC0BA908A8D1
:1008780004F075FB0BA804F0E9FA08A804F0B8FC2A
:100888003A46034631462846FFF73EFE012490E7E4
:1008980002A9074804F0B0F9C0E600BF24770008B1
:1008A800EA7B00081B7700081D77000822770008FC
:1008B800DC07002008B5074800F0F8F8064800F003
:1008C800F5F8064800F0F2F8BDE80840044800F0E2
:1008D800EDB800BF820300208503002088030020B4
:1008E8008B03002070B5094E094C0A4D074803F0E8
:1008F8007DFC013008D0304603F096FDB4F9003095
:10090800E85401332380F1E770BD00BF28020020BE
:10091800600300206203002008B5084803F05EFC6D
:1009280000280ADDFFF7DEFFFFF7A6FD28B1FFF775
:100938001BFEBDE80840FFF78FBD08BD2802002058
:1009480008B51F2005F0C2FDB0FA80F1BDE80840E7
:1009580049091F2005F08CBD836841601944C160B6
:100968007047C368C91A0029ACBF007D00207047D2
:10097800036910B5044603B1984705F0D7FD6368CD
:10098800A0601844E06010BD38B5094B036001232E
:10099800037500230161C3600446154605F0C6FDD2
:1009A800A0602844E060A4616560204638BD00BFAF
:1009B800387700080161704703681847012A03D097
:1009C800022A03D0002070470160FBE70B68036030
:1009D800F8E7000070B5304C304D2378304E13F0F6
:1009E800800F18D000232B602378327801335BB254
:1009F800237023785BB2934203DA23785BB20B2B24
:100A08001EDD2B6844F61F620433934239D925480A
:100A180003F0BCFE3DE0237832785BB29342E3DA20
:100A28002378214A5BB202EBC3035B78012BDBD14D
:100A380023785BB2002112F8330005F019FDD3E7E3
:100A48002378194E17485BB206EBC3030022596896
:100A580003F09AFF23785BB206EBC3035A682B684E
:100A680013442B6023785BB206EBC3035978012942
:100A780011D123785BB216F83300BDE8704005F059
:100A8800F7BC29680748C1F59C410022203103F0D2
:100A98007BFFFF23237070BD00000020900300201F
:100AA800940300209803002040040020084A13788B
:100AB8000B2B09D8591C1170064A037002EBC303AB
:100AC80040F2DC525A607047FF230370704700BF42
:100AD8009403002040040020F0B51C4603780B2B3B
:100AE80085B006460F46154655D80121384605F00B
:100AF80065FC3378294901F8337001EBC30340F2F0
:100B0800DC525A60D5F5087248BF0332D4F5166333
:100B180048BF03339B109210B3700D4672700023C8
:100B280005EBC3025278012A30D001330C2BF7D1E0
:100B38001B4803F0DBFE01224FF0FF331146044649
:100B4800174803F06FFD16481649B4FBF1F103F09E
:100B580064FD1348002244F6206103F015FF124B90
:100B68000093124B03930E48114B0293694603F00E
:100B7800A7FF029B1BB1694603220846984708480D
:100B8800002103F0F9FD064803F026FD337805EB54
:100B9800C30501236B70307805B0F0BD4004002018
:100BA8009803002040420F00DD090008C109000831
:100BB800C509000810B504780B2C14D890F9012049
:100BC800C2F18802B1EB820F4FEA820307DB90F98A
:100BD8000230C3F516739B008B42A8BF0B46024A2E
:100BE80002EBC402536010BD40040020B1F5087F39
:100BF80023B5054615DA95F9022095F90130B4298F
:100C0800A8BFB421C2F5167208469200C3F1880342
:100C1800009200219B00B42220EAE07004F00CF955
:100C28000146284602B0BDE82040FFF7C3BF0000D8
:100C38000149024803F004BE00480140980300201F
:100C4800014803F0DDBD00BF9803002001490248B8
:100C580003F0F6BD00480140A0040020014803F05D
:100C6800CFBD00BFA00400207047000038B50E4A71
:100C78000E4B054618784FF47A73B3FBF0F31068FF
:100C8800B0FBF3F000F0BCF8044658B90F2D09D8B2
:100C9800024629464FF0FF3000F05EF8044B20462C
:100CA8001D6038BD0120FCE7200000200100002065
:100CB8000400002008B50B4B1A6842F400721A6051
:100CC8001A6842F480621A601A6842F480721A60E4
:100CD800032000F02FF80020FFF7C8FFFFF7C4FF3C
:100CE800002008BD003C0240034A044B11681B78F1
:100CF8000B441360704700BF1C080020010000204F
:100D0800014B1868704700BF1C08002038B504461E
:100D1800FFF7F6FF631C1CBF054B1B78054618BF81
:100D2800E418FFF7EDFF431BA342FAD338BD00BF19
:100D3800010000200749CA6822F4E0620302120495
:100D480003F4E063120C134343F0BF6343F400332E
:100D5800CB60704700ED00E0164B30B5DC68C4F39B
:100D68000224C4F10705231D042D28BF0425062BE2
:100D78004FF0FF338CBF033C002403FA05F521EA4A
:100D88000501A34022EA0302A140002841EA020328
:100D9800ACBF00F16040084A4FEA0313B8BF00F047
:100DA8000F00DBB2AABF00F56140135480F800338E
:100DB80030BD00BF00ED00E014ED00E0002808DBC6
:100DC8004209012300F01F0003FA00F0014B43F829
:100DD8002200704700E100E000280DDB43090122F2
:100DE80000F01F0002FA00F02033044A42F8230002
:100DF800BFF34F8FBFF36F8F704700BF00E100E074
:100E08000138B0F1807F0AD2064B074A5860F021BA
:100E180082F823100020072298601A60704701208A
:100E2800704700BF10E000E000ED00E0002809DB9B
:100E38004309012200F01F0002FA00F06033024A61
:100E480042F82300704700BF00E100E0704708B592
:100E5800FFF7FCFF08BD90F83530022B03D0802344
:100E68004365012070470268052380F83530136810
:100E780023F001031360002070470000044A516901
:100E8800014208B502D0506102F03CFB08BD00BF2A
:100E9800003C0140F0B504468BB060B390F8BD3318
:100EA800056803F0FF021BB980F8BC2305F08CF835
:100EB800032384F8BD33EB6B254613F4807355F890
:100EC800100B08BF236101F033FE0FCD6E460FC62D
:100ED8000FCD0FC695E8030086E803002546271DB9
:100EE80097E80E0055F8100B01F06CFD064620B18E
:100EF800022384F8BD3301254EE00146206801F045
:100F08001DFE3046D4F804C01C264FF0010E0146E1
:100F1800C2B2944500F101001CD800231C261946D2
:100F2800D8B2844503F1010322D80FCD6E460FC60F
:100F38000FCD0FC695E8030086E8030097E80E007A
:100F4800206801F03DFE01230546F0B1022284F835
:100F5800BD23D0E706FB0243C3E9111183F83DE046
:100F680083F83C20A3F8422083F83F101965CFE7A7
:100F780006FB0042C2E9811182F8FD1182F8FC01EA
:100F880082F8FF11C2F81012CAE784F83800206806
:100F980084F8BD3302F050F928460BB0F0BD10B507
:100FA8000446006894F8BC33012B15D0012384F85B
:100FB800BC33A36A012B06D1A369012B1EBF836B27
:100FC80043F48033836302F02BF9206801F0AAFD13
:100FD800002084F8BC0310BD0220FCE72DE9F04F87
:100FE800066887B00446304602F061F9029000288E
:100FF80040F02481206802F02BF9002800F01E81BF
:10100800206802F025F9830748BF2268206842BF9C
:10101800536903F00203536102F01AF9070300F160
:101028001081206802F014F945030CD5206802F0FD
:101038001BF92546039006F510694FF00008039B3D
:10104800002B40F0BD81206802F002F9002815DA73
:10105800D6F8043823F00103C6F8043894F8F433BA
:10106800012B40F04182002184F8F413204600F05F
:10107800CEFB2268536903F000435361206802F0F5
:10108800E7F800050BD5D6F80838D90702D5204669
:1010980005F010F82268536903F40063536120686F
:1010A80002F0D6F8C20437D5D6F80438206823F001
:1010B80001031021C6F8043801F058FD06F5006553
:1010C80006F510634FF67F3162680298824200F29B
:1010D8000F82EB6943F00113EB61236B002B00F0E7
:1010E8001982D5F8843043F00B03C5F884306B6C53
:1010F80043F00B036B64D6F80038217C206823F496
:10110800FE63C6F8003804F5717202F0F1F822683F
:10111800536903F480535361206802F099F88304FB
:1011280016D5206802F0C7F8206801F011FEE060CB
:10113800256800F0DFFD227B0146284601F082FC8D
:10114800204604F0AAFF2268536903F40053536150
:10115800206802F07DF8C7062AD52268936923F033
:1011680010039361376AC7F34343022B07F00F0557
:1011780040F0DB8147F6F0731F4214D01C2303FBB9
:101188000545C7F30A184246D5F80812304601F05B
:10119800D5FFD5F80822D5F8143242444344C5F89F
:1011A8000822C5F814322268936943F0100393614A
:1011B800206802F04DF8060707D5204604F069FFBD
:1011C8002268536903F008035361206802F040F86D
:1011D800C50208D50021204604F0A2FF2268536901
:1011E80003F480135361206802F032F8800208D5B6
:1011F8000021204604F090FF2268536903F400138D
:101208005361206802F024F8410007D5204604F015
:101218008BFF2268536903F080435361206802F012
:1012280017F842070AD523685D686B0702D5204680
:1012380004F07EFF226853682B43536007B0BDE873
:10124800F08F2068DFF810B302F006F806F5306575
:10125800804604F5017A4FF00009B8F1000F3FF419
:10126800E0AE18F0010F00F0A3805FFA89F1206862
:10127800039102F001F810F0010F039907464DD0D1
:101288000123AB6023682069D3F840C003F53063BD
:1012980003EB491301289A6854D1100714D5DC458B
:1012A80004D9120444BF4FF400429A6020460393C5
:1012B80004F0D8FE04F571722068012102F018F8D4
:1012C800039B08229A6029E0900601D52022F9E7BD
:1012D80012F0280F22D1DC4504D9120402D54FF4AC
:1012E8000042EFE71B69DAF80020C3F31203D31AB0
:1012F800CAF81030DAF804301A44CAF80420204634
:1013080004F0B6FEB9F1000F08D1D4F810322BB9A9
:10131800206804F57172012101F0EAFF380732D51F
:10132800236820691A6C03F5306303EB491301281D
:10133800996814D15A4515D9090444BF4FF400419E
:1013480099600FE08348844505D11004C7D49206FC
:1013580044BF20229A60204604F08AFEDEE77D48DA
:101368008242E9D02046039204F07CFE039A5A4553
:1013780007D92169012904D1206804F5717201F0A7
:10138800B7FF0823AB60FB0644BF1023AB60B80669
:1013980009D52169012904D1206804F5717201F089
:1013A800A7FF2023AB60B90444BF4FF40053AB60E0
:1013B80009F101094FEA580820350AF11C0A4CE7DF
:1013C800039BDA0740F187805FFA88FB206859465B
:1013D80001F05BFFC307074624D5D6F8343801204F
:1013E80008F00F0200FA02F223EA0203C6F83438C2
:1013F8002369C9F80800834202BFD5E911239B1865
:10140800AB645946204604F03CFE2169012909D104
:10141800B8F1000F06D1236D23B9206804F5717265
:1014280001F066FF380744BF0823C9F80830F906F9
:1014380044BF1023C9F808307A0644BF4023C9F8CE
:101448000830BB0744BF0223C9F808303F0642D51D
:10145800D5E914329A423ED89B1A6A6CD4F800A097
:10146800934228BF134603339B0804930AF510637D
:1014780003EB48130593059B04999A6992B28A4233
:10148800D5E9147325D39F4200D95FB9DAF8343807
:1014980008F00F02012101FA02F223EA0203CAF856
:1014A800343818E0FF1A6B6C9F4228BF1F46FB1C9C
:1014B8009B080493237C0093A96CBBB25A46504600
:1014C80001F03AFDAB6C3B44AB646B6D1F446F6538
:1014D800D1E79F42DAD9039B5B0808F1010803931F
:1014E8001C3509F12009AAE5204604F0FBFDC0E5FA
:1014F80099601A6822F400121A60C3F80812D3F827
:10150800002222F40012C3F80022029A0132029249
:101518002033D9E56B6943F4005343F02B036B6127
:101528002B6943F00B032B61E5E5062B7FF43BAEFB
:10153800082204F57171304601F000FE1C2303FBFC
:101548000545C7F30A17D5F814321F44C5F81472B5
:1015580029E600BF0A31544F0A30544F10B590F8AD
:10156800BC23012A04460BD0012280F8BC2380F852
:101578003810006801F044FE002084F8BC0310BD58
:101588000220FCE770B501F00F06C6EBC60411F0A7
:10159800800F05464FEA84044FF01C001FD000FB63
:1015A800065004F13C010124294480F83D408A603A
:1015B8004A780E70CB7002B1CE80022B04BF002394
:1015C8000B7195F8BC33012B12D00123286885F8DC
:1015D800BC3301F0C8FB002085F8BC0370BD00FBDC
:1015E800065004F5FE710024294480F8FD41DEE729
:1015F8000220F3E710B5044601F00F00C0EBC0036A
:1016080011F0800F4FEA83034FF01C0216D002FB43
:10161800004203F13C010123214482F83D30087067
:1016280094F8BC33012B12D00123206884F8BC3312
:1016380001F0D8FB002084F8BC0310BD02FB004277
:1016480003F5FE710023214482F8FD31E7E702200B
:10165800F3E738B501F00F051C2404FB050104FB72
:10166800050401F5FE71C4F810320023C4F80822FD
:10167800C4F8143284F8FD3184F8FC510369006819
:10168800012B08BFC4F80C22DAB21DB901F0DAFB4D
:10169800002038BD01F064FCFAE701F00F011C23BB
:1016A80003FB0100D0F81402704738B501F00F05AC
:1016B8001C2404FB050104FB05043C3123650023BD
:1016C80063650123A26484F83D3084F83C500369C3
:1016D8000068012B08BFE264DAB21DB901F0B2FB61
:1016E800002038BD01F03CFCFAE738B5436801F04A
:1016F8000F059D4204462CD811F0800F4FF01C00B6
:101708001ED000FB054200FB054101233C3182F855
:101718003D3001238B700D7094F8BC239A421AD087
:10172800206884F8BC3301F017FD2DB9217C2068AE
:1017380004F5717201F0DCFD002084F8BC0338BDAB
:1017480000FB01431A4603F5FE71002382F8FD31C0
:10175800DFE70120F3E70220F1E738B5436801F03D
:101768000F029A4204462AD8C2EBC20311F0800F36
:101778004FEA83034FF01C0018D000FB024003F12E
:101788003C010123214480F83D3000258D700A700A
:1017980094F8BC33012B14D00123206884F8BC339F
:1017A80001F005FD84F8BC53284638BD00FB024013
:1017B80003F5FE710023214480F8FD31E5E701209F
:1017C800F3E70220F1E7006870B51204446A19B91A
:1017D80022438262002070BD836A4D1E04EB1344CD
:1017E80000235E1CDBB29D4205D83F3100EB81002F
:1017F80022434260EEE7403300EB83035B6804EB6F
:1018080013443346EDE70368002059627047704778
:101818002DE9F341044640B30368DD0710D423687B
:1018280098075ED423681A0700F1A08023685B0735
:1018380000F1BE80A069002840F01F8100202BE045
:10184800A64B9A6802F00C02042A07D09A6802F0A4
:101858000C02082A0BD15A68510208D59F4B1B6805
:101868009A03DCD56368002BD9D1012014E06268A3
:10187800B2F5803F13D11A6842F480321A60FFF73C
:101888003FFA964E054633689B03C8D4FFF738FAEB
:10189800401B6428F7D9032002B0BDE8F0818F4DC2
:1018A800B2F5A02F2B6807D143F480232B602B6857
:1018B80043F480332B60E2E723F480332B602B68FA
:1018C80023F480232B60002AD9D1FFF719FA0646A2
:1018D8002B689F03A3D5FFF713FA801B6428F7D959
:1018E800D9E77E4B9A6812F00C0F07D09A6802F07D
:1018F8000C02082A11D15B685E020ED4774B1A6875
:10190800950702D5E268012AAFD11A68216922F049
:10191800F80242EAC1021A6084E7E268704BB2B189
:1019280001221A60FFF7ECF96C4D06462B68980700
:1019380007D52B68226923F0F80343EAC2032B601A
:1019480070E7FFF7DDF9801B0228EFD9A3E71A60DB
:10195800FFF7D6F9614E0546336899077FF562AF00
:10196800FFF7CEF9401B0228F6D994E762695D4B70
:101978007AB101221A60FFF7C3F9584E0546736F12
:101988009F073FF553AFFFF7BBF9401B0228F6D975
:1019980081E71A60FFF7B4F9504E0546736F980750
:1019A8007FF544AFFFF7ACF9401B0228F6D972E780
:1019B8004A4B1A6C12F0805228D101921A6C42F0EC
:1019C80080521A641B6C03F080530193019B01271A
:1019D800454D2B68D9051BD5A368404D012B27D150
:1019E8002B6F43F001032B67FFF78AF93B4E05463F
:1019F80041F28838336F9B0739D5002F3FF41AAF6F
:101A0800364A136C23F08053136413E70027DFE78B
:101A18002B6843F480732B60FFF772F906462B6836
:101A2800DA05D9D4FFF76CF9801B0228F7D932E719
:101A3800052B04D12B6F43F004032B67D0E72A6FE3
:101A480022F001022A672A6F22F004022A67002B7B
:101A5800CAD1FFF755F941F2883806462B6F980727
:101A6800CBD5FFF74DF9801B4045F7D913E7FFF7B2
:101A780047F9401B4045BDD90DE7184DAB6803F049
:101A88000C03082B47D0194E00230228336035D1A8
:101A9800FFF736F907462B68990129D4D4E90732AC
:101AA8001343626A43EA8213E26A43EA0263A26A60
:101AB8005208013A43EA02436B6001233360FFF79F
:101AC8001FF9064D04462B689A013FF5B7AEFFF79C
:101AD80017F9001B0228F6D9DDE600BF00380240DE
:101AE80000004742800E47420070004060004742B5
:101AF800FFF706F9C01B0228CDD9CCE6FFF700F99D
:101B080004462B689B017FF599AEFFF7F9F8001B97
:101B18000228F6D9BFE601283FF4BEAEAB68E269F9
:101B280003F4800191427FF4A0AE216A03F03F02E2
:101B38008A427FF49AAE616A47F6C0721A408A42B6
:101B48007FF493AEA16A03F440328A427FF48DAEEB
:101B5800E26A03F0706393423FF470AE85E600BF1B
:101B6800134908B58B6803F00C03042B1CD0082B11
:101B78001CD14A684B68496813F4800314BF0D48A8
:101B88000D48C1F3881118BF002302F03F02A1FBE2
:101B98000001FEF761FB064B5B68C3F301430133A9
:101BA8005B00B0FBF3F008BD0248FCE70248FAE727
:101BB8000038024040787D010024F4002DE9F0410E
:101BC8000D46044610B90120BDE8F081444B1A685F
:101BD80002F00F028A4228D3226897072DD4D00733
:101BE80041D43F4B1A6802F00F02AA4266D8226815
:101BF80051076CD4130707D53A4A2169936823F42F
:101C0800604343EAC1039360FFF7AAFF354B364AA6
:101C18009B68C3F30313D35CD840344B1860344B30
:101C28001868FFF723F80020CEE7CAB21A701B68BD
:101C380003F00F038B42C6D1CEE72A4B12F0040FF4
:101C48001EBF996841F4E0519960160742BF996830
:101C580041F4604199602349A0688B6823F0F00340
:101C680003438B60BBE762681E4B012A1CD11B68CB
:101C780013F4003FA7D01B4EB36823F003031343AC
:101C8800B360FFF73DF841F288380746B3686268E9
:101C980003F00C03B3EB820FA3D0FFF731F8C01B9E
:101CA8004045F3D903208FE7911E01291B6802D80C
:101CB80013F0007FDEE713F0020FDBE7EAB21A70D9
:101CC8001B6803F00F03AB427FF47DAF8FE7054934
:101CD800E0688B6823F4E05303438B608AE700BF16
:101CE800003C024000380240E8770008200000204D
:101CF80004000020014B1868704700BF2000002036
:101D0800044B054A9B68C3F38223D35C034A1068DB
:101D1800D840704700380240F877000820000020BB
:101D2800044B054A9B68C3F34233D35C034A1068EB
:101D3800D840704700380240F8770008200000209B
:101D48000F2303600B4B9A6802F0030242609A6803
:101D580002F0F00282609A6802F4E052C2609B6866
:101D6800DB0803F4E0530361034B1B6803F00F0324
:101D78000B60704700380240003C024003230360B8
:101D88000E4BD3F88420C2F388128260D3F88420E3
:101D9800C2F30272C260D3F8842002F03F024260AC
:101DA80099681A6F01F4F81102F440720A4302614B
:101DB800D3F88C30C3F300630375704700380240D2
:101DC80003689A68D20410B504460AD5DB68D905B9
:101DD80007D501F055FD2268D368DBB263F4C07300
:101DE800D36023689A6892040BD5DB689B0508D5F5
:101DF800204600F00FF82268D368DBB263F4207342
:101E0800D360034B4FF400325A610123637710BD4E
:101E1800003C014070470000036A23F0010303629D
:101E2800036A70B5446882690D6822F073022A4318
:101E38008D6823F002032B430A4DA8420BD1CD68CD
:101E480023F008032B43D1E9055624F440743543A5
:101E580023F004032C43446082614A6842630362AE
:101E680070BD00BF00000140036A23F48073036261
:101E7800036A70B54468C2690D6822F073022A4388
:101E88008D6823F4007343EA05230B4DA8420DD156
:101E9800CD6823F4006343EA0523D1E9055624F409
:101EA8004054354323F4806344EA05144460C26116
:101EB8004A68C263036270BD00000140036A23F4EC
:101EC80080530362036A30B54468C2690D6822F41E
:101ED800E64242EA05228D6823F4005343EA0533BB
:101EE800064DA84202BF4D6924F4804444EA851493
:101EF8004460C2614A680264036230BD0000014068
:101F0800022380F83D3003689A6802F00702062A27
:101F18001EBF1A6842F001021A60012380F83D30A2
:101F28000020704790F83C30012B4FF0020309D095
:101F380080F83D3003685961012380F83D30002363
:101F480080F83C30184670477047704703681A6934
:101F5800910710B504460ED5DA6892070BD56FF0D5
:101F680002021A61012202779B699B0777D002F06F
:101F780007FE0023237723681A69500710D5DA680B
:101F880051070DD56FF004021A61022222779B696E
:101F980013F4407F204668D002F0F2FD0023237737
:101FA80023681A6912070FD5DA6810070CD56FF085
:101FB80008021A6104222277DB69990720465AD061
:101FC80002F0DEFD0023237723681A69D20610D5B4
:101FD800DA68D0060DD56FF010021A610822227750
:101FE800DB6913F4407F20464BD002F0C9FD002383
:101FF800237723681A69D10708D5DA68D20705D587
:102008006FF001021A61204602F08EFD23681A69FA
:10201800100608D5DA68110605D56FF080021A6136
:10202800204600F076FA23681A69520608D5DA685D
:10203800500605D56FF040021A612046FFF785FF6C
:1020480023681A69910622D5DA6892061FD56FF0BF
:10205800200220461A61BDE8104000F059BA02F08B
:102068008DFD2046FFF770FF83E702F087FD2046CD
:10207800FFF76AFF92E702F081FD2046FFF764FF51
:10208800A0E702F07BFD2046FFF75EFFAFE710BD3B
:10209800244A036890420ED0B0F1804F0BD0A2F5CD
:1020A8007C42904207D002F58062904203D002F54C
:1020B8008062904215D14A6823F070031343194A8D
:1020C800904219D0B0F1804F16D0A2F57C429042D0
:1020D80012D002F5806290420ED002F580629042E2
:1020E8000AD0114A904207D002F58062904203D08C
:1020F80002F58062904203D1CA6823F44073134307
:102108004A6923F08003134303608B68C3620B683A
:102118008362044B984204BF0B6903630123436144
:10212800704700BF000001400040014010B5044660
:10213800A0B190F83D3003F0FF021BB980F83C20B5
:1021480001F03EFD0223206884F83D30211DFFF791
:102158009FFF012384F83D30002010BD0120FCE7DB
:10216800036A23F010030362036A70B54468826946
:102178000D6822F4E64242EA05228D6823F0200326
:1021880043EA05130B4DA8420DD1CD6823F0800317
:1021980043EA0513D1E9055624F44064354323F096
:1021A800400344EA8504446082614A6882630362AA
:1021B80070BD00BF0000014010B590F83C30012B05
:1021C80004464FF0020010D00123082A84F83C305E
:1021D80084F83D0018D009D872B1042A10D0012320
:1021E800002084F83D3084F83C0010BD0C2AF6D15C
:1021F8002068FFF763FEF2E72068FFF70DFEEEE7C1
:102208002068FFF7ADFFEAE72068FFF72DFEE6E755
:1022180038B590F83C30012B04464FF0020010D03E
:102228000123082A84F83C3084F83D003FD009D8BF
:10223800DAB1042A2AD00123002084F83D3084F83A
:102248003C0038BD0C2AF6D12068FFF737FE23681A
:102258000969DA6942F40062DA61DA6922F48062B3
:10226800DA61DA6942EA012230E02068FFF7D4FD3A
:10227800236809699A6942F008029A619A6922F00A
:1022880004029A619A690A439A61D4E72068FFF7C1
:1022980067FF236809699A6942F400629A619A693A
:1022A80022F480629A619A6942EA0122ECE7206886
:1022B800FFF7DAFD23680969DA6942F00802DA6192
:1022C800DA6922F00402DA61DA690A43DA61B2E70C
:1022D80070B5046A164E24F001040462B0428469A1
:1022E800056A21D0B0F1804F1ED0A6F57C46B042D9
:1022F8001AD006F58066B04216D006F58066B04260
:1023080012D006F59A36B0420ED044F001021B01F5
:10231800DBB222F0F0021A4301F00A0125F00A03A9
:1023280019438261016270BD24F003042243EEE781
:1023380000000140F8B590F83C30012B04460E46E9
:1023480015464FF002001AD0012384F83D0084F8A6
:102358003C30D1E900122068F3688DB9FFF7B8FF67
:102368002368B1689A6922F00C029A619A690A4353
:102378009A610123002084F83D3084F83C00F8BDC0
:10238800042DB66822D1056A25F010050562876913
:10239800D0F820E027F4407C1D034CEA022C090108
:1023A8002CF4704CADB22EF0A00E01F0A00145EA5D
:1023B8000C0541EA0E0185610162836923F44063DB
:1023C8008361836943EA06268661D2E7082D056A98
:1023D8001CD125F480750562C769056A27F00307D3
:1023E80017431B010902DBB227F0F00725F420652B
:1023F80001F420611F432943C7610162C36923F0C7
:102408000C03C361C3691E43C661B2E725F4805556
:102418000562C569076A25F4407545EA02251B036C
:10242800090325F470459BB227F4204701F42041A5
:102438002B433943C3610162C36923F44063C36119
:10244800C36943EA0626DFE7036A01F01F0110B5F6
:1024580001248C4023EA04030362036A8A401A4376
:10246800026210BD10B5044601220068FFF7ECFFB8
:102478002368094A934202BF5A6C42F400425A64E4
:102488009A6802F00702062A1EBF1A6842F0010283
:102498001A60002010BD00BF00000140FFF7E2BF36
:1024A80010B5044601220068FFF7CEFF23689A683A
:1024B80002F00702062A1EBF1A6842F001021A60DB
:1024C800002010BD036A01F01F0110B504248C40E0
:1024D80023EA04030362036A8A401A43026210BDB6
:1024E80010B5044604220068FFF7ECFF23685A6C15
:1024F80042F400425A649A6802F00702062A1EBF94
:102508001A6842F001021A60002010BDFFF7E8BF08
:10251800704770470368DA6822F49072DA605A6983
:1025280022F001025A61202380F83A3070470000F7
:1025380038B50368C1681A69044622F440520A4350
:102548001A612569A268D968C0692A43656921F4B6
:1025580016412A4321F00C0102430A43DA605A6902
:10256800A16922F440720A43B0F5004F5A61254A26
:1025780028D1934203D002F5806293421FD1FFF71E
:10258800CFFB6268002392184FF019015B41A0FB52
:102598000101FDF761FE6421B0FBF1F501FB1503B4
:1025A800DB003233B3FBF1F303F007025B00216871
:1025B80002EB051203F4F87313448B6038BDFFF780
:1025C8009FFBDEE7934202D00F4A934217D1FFF7F1
:1025D800A7FB636819219A00A0FB01019B0FFDF777
:1025E8003BFE6422B0FBF2F102FB110324681B01DD
:1025F8003233B3FBF2F303EB0113A360DEE7FFF71B
:102608007FFBE6E70010014000140140704710B559
:10261800044640B390F8393003F0FF021BB980F844
:102628003820FFF7F3FF2268242384F83930D36871
:1026380023F40053D3602046FFF77AFF23681A6912
:1026480022F490421A615A6922F02A025A61DA6821
:1026580042F40052DA6000202023E06384F8393025
:1026680084F83A3010BD0120FCE710B5044660B389
:1026780090F8393003F0FF021BB980F83820FFF7D3
:10268800C5FF2268242384F83930D36823F4005323
:10269800D3602046FFF74CFF23681A6922F4904262
:1026A8001A615A6922F022025A615A6942F00802F4
:1026B8005A61DA6842F40052DA6000202023E063AD
:1026C80084F8393084F83A3010BD0120FCE790F8DE
:1026D8003930202B18D1A9B1A2B190F83830012B8C
:1026E80012D0C28401628284016800232122C3635C
:1026F80080F8383080F83920CA6842F08002CA6011
:1027080018467047012070470220704790F83A3009
:10271800202B20D1E9B1E2B190F83830012B1AD042
:10272800C285828500232222C36380F83A2002688A
:1027380080F838308162D16841F48071D160516984
:1027480041F001015161D16841F02001D160184682
:102758007047012070470220704710B590F83A3052
:10276800222B33D181680469836A0268B1F5805FDE
:1027780023D15268ECB9C2F3080223F8022B836212
:10278800C48D013CA4B2C4858CB90368DA6822F010
:102798002002DA60DA6822F48072DA605A6922F07C
:1027A80001025A61202380F83A3001F0BDFB002075
:1027B8000DE0D2B223F8012BE1E7591C526881627F
:1027C8000CB91A70DCE702F07F02FAE7022010BDAC
:1027D80003681A68D96870B516075D69044607D199
:1027E80096065CD58D065AD5BDE87040FFF7B5BF93
:1027F80005F0010001F49075054350D0D60705D5C2
:10280800CD0542BFE36B43F00103E363530704D5EF
:1028180018B1E36B43F00203E363960704D518B1DC
:10282800E36B43F00403E363150707D501F02003C6
:1028380003431EBFE36B43F00803E363E36B4BB34F
:10284800900604D5890602D52046FFF786FF23683F
:102858005B69E56B03F0400305F008051D4320465E
:1028680019D0FFF757FE23685A6952060FD55A69DF
:10287800606B22F040025A6148B1264B0365FEF7AF
:10288800EAFA38B1606BBDE87040036D184720461E
:1028980001F060FB70BD01F05DFBE563FAE7160629
:1028A80028D50D0626D594F83920212AF2D1A16819
:1028B800226AB1F5805F18D11188C1F30801596007
:1028C800216981B902322262E28C013A92B2E28431
:1028D800002ADFD1DA6822F08002DA60DA6842F092
:1028E8004002DA60D6E70132EDE7511C2162127826
:1028F8005A60E9E75006CDD54A06CBD5DA6822F00A
:102908004002DA60202384F83930204601F00FFBBA
:10291800C0E700BF2129000808B5806B0023C385E4
:10292800C38401F017FB08BD90F83830012B11D093
:102938000268242380F83930D36823F00C0343F06D
:102948000803D360202380F83930002380F838301A
:10295800184670470220704790F83830012B11D084
:102968000268242380F83930D36823F00C0343F03D
:102978000403D360202380F83930002380F83830EE
:10298800184670470220704790F8392090F83A00AE
:10299800104370470A4B013B0FD00269002AFADA4C
:1029A8000369074A43F001030361013A05D003694B
:1029B80013F00103F9D1184670470320704700BF90
:1029C800410D030084B038B505AD85E80E000A9BBB
:1029D800012B044625D1836B23F480338363C368BA
:1029E80023F4840323F04003C360C36823F4401333
:1029F800C360119B012B02BFC36843F48013C360FB
:102A0800FFF7C8FF089B012B07D1A36843F0060313
:102A1800A360A36843F02003A360BDE8384004B076
:102A28007047C36843F04003C360FFF7B3FF0E9BD2
:102A380023B9A36B43F48033A363E3E7A36B23F4C5
:102A48008033F9E7022A4AD1274B284A0B4493429C
:102A580039D9274B274A0B44934236D9264AA1F540
:102A68007403A3F51053934231D9244AA1F1837317
:102A7800A3F5E74393422CD3214B224A0B449342BC
:102A880029D9214B214A0B44934226D3204B214A72
:102A98000B44934223D3204AA1F1B773A3F55853AB
:102AA80093421ED31D4B1E4A0B44934234BF072347
:102AB8000623C26822F47052C260C26842EA8323C5
:102AC800C360002070470F23F3E70E23F1E70D23BF
:102AD800EFE70C23EDE70B23EBE70A23E9E70923EC
:102AE800E7E70823E5E700BF405327FFFF340C0062
:102AF800401E1BFF3F420F007F4F120020D61300DD
:102B080060B6E5FE5FE3160000D3CEFE40771B00FB
:102B1800C05BB3FEC091210020753800E05459FE17
:102B2800E09C4100836843F0010383600020704704
:102B3800836823F0010383600020704708B5C368E9
:102B4800012923F0C043C36008D1C36843F0005390
:102B5800C3603220FEF7DAF8002008BD19B9C3684F
:102B680043F08043F4E70120F7E70000890141F0D2
:102B78002001064A0161013A05D0036913F02003D8
:102B8800F9D1184670470320704700BF410D030074
:102B98001023064A0361013A05D0036913F01003B4
:102BA800F9D1184670470320704700BF410D030054
:102BB800D0F800381943C0F800180020704700000A
:102BC80084B02DE9F047044609A880E80E000023E8
:102BD8000C9E139D0F46194603F1400204EB820236
:102BE80001330F2B5160F7D1002D7BD1A36B43F438
:102BF8000013A363A36B23F40023A363A36B23F441
:102C08008023A3630023C4F8003ED4F80038C4F836
:102C180000380E9B012B04F500686DD10B99002933
:102C280068D12046FFF7C4FF10212046FFF79EFF1A
:102C380001462046FFF7ACFF0843C0B20023003826
:102C4800C8F8103018BF0120C8F8143004F5106215
:102C5800C8F81C3019464FF0904C4FF0006E4FF6F4
:102C68007F39BB424AD1002204F5306311464FF048
:102C7800904C4FF0006E4FF67F39BA4251D1D8F8D8
:102C88001030012E23F48073C8F810300AD12E4B6F
:102C9800C8F83030D8F8303043F4803343F00303B9
:102CA800C8F830300023A3616FF0804363611EB918
:102CB800A36943F01003A361A269244B1343A361E2
:102CC8000F9B1BB1A36943F00803A361012D01BF4A
:102CD800A36943F0804343F00403A361BDE8F047D0
:102CE80004B07047236823F400132360A36B43F4F4
:102CF800002386E7194694E7032192E7D2F800A05B
:102D0800BAF1000F0BDA3BB9C2F800E011610133E8
:102D1800C2F808902032A4E7C2F800C0F6E71160B4
:102D2800F4E7D3F800A0BAF1000F0BDA3AB9C3F808
:102D380000E019610132C3F8089020339DE7C3F819
:102D480000C0F6E71960F4E70001800000383C8015
:102D5800D0F8083813F0060004D013F0020F14BF9F
:102D680002200F20704730B50D78012405F00F03BD
:102D78009C404B7800F50062012B00EB4510D369AD
:102D880018D11C43D461D0F800391A0410D48A68C9
:102D9800D0F80049C2F30A03CA78234343EA8243BE
:102DA80043EA855343F0805343F40043C0F80039A5
:102DB800002030BD43EA0444D461D0F8003B1B0432
:102DC800F6D48B68D0F8002BC3F30A031343CA78F0
:102DD80043EA824343F0805343F40043C0F8003B86
:102DE800E6E7000030B50C78497800F5006204F099
:102DF8000F050123012903FA05F3D16B00EB4410F9
:102E08000ED121EA0301D163D16921EA0303D36119
:102E1800D0F80029094B1340C0F80039002030BD14
:102E280021EA0341D163D16921EA0343D361D0F890
:102E3800002B034B1340C0F8003BEFE7007833EC5E
:102E48000078F3EF4B78DFF8ECC0F0B50E784D69F9
:102E5800374F012B00EB461446D104F51063BDB97A
:102E68001D692F401F611D6945F400251D611D69FD
:102E780005EA0C05012A1D6123D10A6902B15A61CC
:102E8800D4F8003943F00443C4F800390020F0BDF9
:102E9800D3F810E00EEA0C0CC3F810C0D3F810C039
:102EA8000CEA07071F618F68AF421D6938BF4F6181
:102EB80045F400251D614D691F69C5F312053D43A1
:102EC800D8E7D4F8003943F00443C4F800394B6913
:102ED800002BDBD0D0F8342806F00F060123B340CE
:102EE8001343C0F83438D1E7D4F8100B00EA0C00CB
:102EF800C4F8100BD4F8100B384004F5306318618F
:102F0800886805B148611D6945F400251D611D6982
:102F1800C0F312002843012A186102D1CA6802B11D
:102F28005A61D4F8003B43F00443C4F8003BADE7D2
:102F3800FFFF07E00000F8FF10B59DF8084044B90E
:102F4800033301329B0800EB023001EB83038B4211
:102F580001D1002010BD51F8042B0260F7E70000F2
:102F68002DE9F3414D780F784B69CE78DFF8C0C171
:102F7800DFF8C0E1012D00EB471440F08E8004F526
:102F88001065D5F810806BBB08EA0C0CC5F810C0AA
:102F9800D5F810C04CF4002CC5F810C0D5F810C0F6
:102FA8000CEA0E0EC5F810E0012A4ED10B6903B1E8
:102FB8006B61012E0CD1D0F8083813F4807FD4F857
:102FC80000390CBF43F0005343F08053C4F8003974
:102FD800D4F8003943F00443C4F80039002002B0A3
:102FE800BDE8F08108EA0E0EC5F810E0D5F810E04B
:102FF8000EEA0C0CD1F808E0C5F810C00EEB030C73
:103008000CF1FF3CBCFBFEFEDFF82CC1D5F81080AC
:103018000CEACE4C4CEA080CC5F810C0D5F810E004
:10302800C3F3120C4CEA0E0C012EC5F810C0BBD12C
:10303800D5F810C02CF0C04CC5F810C0D5F810C099
:103048004CF0005CC5F810C0AEE7D4F80059012E6A
:1030580045F00445C4F800590BD0002BBED0D0F879
:10306800343807F00F02012797401F43C0F834781F
:10307800B4E7D0F8085815F4807FD4F800590CBF8D
:1030880045F0005545F08055C4F800590092C968CC
:103098009BB23A46FFF750FFA0E7D4F8105B05EA69
:1030A8000E05C4F8105BD4F8105B05EA0C0504F5AE
:1030B80030673D618D681BBB3B69C5F312051D4335
:1030C8003D613B6943F40023012A3B6102D1CB688F
:1030D80003B17B61012E0CD1D0F8083813F4807F3E
:1030E800D4F8003B0CBF43F0005343F08053C4F8BE
:1030F800003BD4F8003B43F00443C4F8003B6DE7C1
:10310800DFF834C0D7F810E02B44013BB3FBF5F3EC
:103118000CEAC34C4CEA0E0CC7F810C09BB2D7F8A7
:1031280010C06B43C3F3120343EA0C03CCE700BFA0
:10313800FFFF07E00000F8FF0000F81F03329208C5
:1031480001EB820200F58050914201D10846704798
:10315800036841F8043BF7E74A780B78012A00EB4B
:10316800431012D1D0F80029002A06DB2BB1D0F881
:10317800003923F08043C0F80039D0F8003943F40F
:103188000013C0F8003900207047D0F8002B002A3F
:1031980006DB2BB1D0F8003B23F08043C0F8003B9E
:1031A800D0F8003B43F40013C0F8003BEBE70B7882
:1031B8004A7800EB4310CB78012AA3F10203DBB273
:1031C8000FD1D0F80029012B22F40012C0F80029F1
:1031D80005D8D0F8003943F08053C0F800390020F2
:1031E8007047D0F8002B22F40012012BC0F8002BF6
:1031F8009EBFD0F8003B43F08053C0F8003BEEE799
:10320800D0F8003823F4FE63C0F80038D0F800384E
:10321800090101F4FE611943C0F800180020704745
:1032280008B5D0F8043823F00203C0F804380320A6
:10323800FDF76CFD002008BD08B5D0F8043843F050
:103248000203C0F804380320FDF760FD002008BD24
:103258004269806910407047D0F8183800F500605E
:10326800C0691840000C7047D0F8183800F50060A5
:10327800C069184080B2704700EB411100F500604A
:10328800D1F8082B40691040704710B5D0F81048A5
:10329800D0F8343800EB411001F00F01CB4000F5B5
:1032A8001060DB018068DBB22343184010BD406921
:1032B80000F001007047D0F8003923F4FF6323F0D1
:1032C8000703C0F80039D0F8082802F00602042ADB
:1032D80002BFD0F8002942F00302C0F80029D0F854
:1032E800042842F4807200F5006300205A60704799
:1032F80030B5056C104CA54200F5306303D9D0F801
:10330800004B002C16DB00241C611C6944F40024CB
:103318001C611C6944F018041C611C69012944F0F3
:10332800C0441C6101BF5A61D0F8003B43F08023C0
:10333800C0F8003B002030BD0A30544F86B000234F
:10334800052853D8DFE800F003111E2B38450093F9
:10335800274B28481A6B42F001021A631B6B03F0D3
:1033680001030093009B06B070470193204B22484D
:103378001A6B42F002021A631B6B03F002030193FB
:10338800019BF0E702931A4B1C481A6B42F00402A7
:103398001A631B6B03F004030293029BE3E7039396
:1033A800134B17481A6B42F008021A631B6B03F0A1
:1033B80008030393039BD6E704930D4B11481A6B3C
:1033C80042F010021A631B6B03F010030493049B72
:1033D800C9E70593064B0C481A6B42F080021A6342
:1033E8001B6B03F080030593059BBCE70020BAE73D
:1033F8000038024000000240000402400008024079
:10340800000C024000100240001C024008B50649AA
:1034180000F028FAC0F3C430831E022B9ABF800044
:103428000438002008BD00BF3478000873B515497A
:10343800154C064600F0F2F901F0ACF954F82030CA
:10344800054673B90F49304600F0E8F90190A82005
:1034580001F0E5FE0199064601F0F2F954F825302D
:103468001E6054F825301C684CB1204601F0C8F99C
:10347800A821204602B0BDE8704001F0D2BE02B0DB
:1034880070BD00BF34780008BC070020FDF738BCC9
:10349800704708B5FDF728FCFDF7D9FCFFF7F8FFE2
:1034A80008BD00000B4BDA68D2015EBFDA6842F053
:1034B8008072DA60084B00225A601A6842F00102F2
:1034C8001A6000BF00BF00BF5868B0FA80F040091A
:1034D800704700BFF0ED00E0001000E008B5FFF70E
:1034E800E1FFFDF7E7FB00F051FEBDE8084002F000
:1034F80063BF836810B5044613B103220146984799
:10350800204610BD0023012803F1010202D0400823
:103518001346F8E71421DBB24B43044A181D104444
:10352800816811B11A44136918477047480500208B
:103538000120FDF7A3BC0220FDF7A0BC0420FDF785
:103548009DBC0820FDF79ABC1020FDF797BC38B544
:1035580005242025A8B2FDF791FC013C4FEA45055A
:10356800F8D138BD38B506244FF48065A8B2FDF708
:1035780085FC013C4FEA4505F8D138BD38B5002334
:1035880083608B6804460D462BB102229847EB688E
:10359800E360AB68A360204638BD0000204B0721DC
:1035A8001975082183F82810092183F83C100A218D
:1035B800062283F8501017211A7083F8641000222D
:1035C80083F8781083F88C1083F8A01083F8B4106F
:1035D8002821DA601A625A639A64DA651A67C3F8AE
:1035E8008420C3F89820C3F8AC20C3F8C02083F81F
:1035F800C810C3F8D42083F8DC10C3F8E82083F897
:10360800F010C3F8FC2083F80411C3F8102183F8E4
:103618001811C3F8242183F82C11C3F838217047F6
:103628004805002038B5054CA4F5A075143C201DAC
:10363800FFF75FFFAC42F9D138BD00BF8806002014
:1036480030B5436891FAA1F4B4FA84F50124AC408A
:1036580023EA040391FAA1F1B1FA81F18A401343F4
:10366800436030BD30B5C46891FAA1F3B3FA83F36F
:1036780003255B0005FA03F324EA030391FAA1F199
:10368800B1FA81F149008A401343C36030BD431C3D
:1036980004D00C3131F90C3C5A1C01D10020704780
:1036A800834201F10C01F5D10120704700F00F02AF
:1036B800484B2DE9F041C0F303141FFA80F801309C
:1036C80053F822500E4601F0070703D1424848211B
:1036D80000F0E8F82046FFF731FE8368044695FAC3
:1036E800A5F2B2FA82F20321520001FA02F223EAA9
:1036F800020195FAA5F3B3FA83F35A000323934022
:103708000B438360032F35D8DFE807F01D1D021D2A
:1037180018F0080FC6F3062217D0406A2B0A93FA4E
:10372800A3F1B1FA81F14FF00F0C89000CFA01F105
:1037380020EA010193FAA3F3B3FA83F39B0002FA98
:1037480003F30B4363623B4619E0036A95FAA5F15C
:10375800B1FA81F10F20890000FA01F123EA010191
:1037680095FAA5F3B3FA83F39B0002FA03F30B432C
:103778002362E8E718488D2100F094F800232168B7
:1037880095FAA5F2B2FA82F20320520000FA02F288
:1037980021EA020195FAA5F2B2FA82F252009340A8
:1037A800013F0B43012F236007D816F0080218BF0A
:1037B800012229462046FFF743FFC6F30112012ADA
:1037C80002D0022A18BF002229462046BDE8F0414F
:1037D800FFF748BFA877000844770008431C06D1C4
:1037E8007047834202D18968FFF760BF0C31B1F995
:1037F80000305A1CF5D10248B92100F053B800BF77
:1038080044770008B1F900305A1C01D100207047F4
:10381800834201D1486870470C31F3E7431C01D05B
:10382800FFF7F0BF002070474B6813B94FF0FF3027
:103838007047834202D1B1F9000070470C31F3E7B9
:1038480008B1FFF7F1BF4FF0FF307047B1F9003012
:103858005A1C01D118467047834201D188687047C5
:103868000C31F3E7431C01D0FFF7F0BF70478842E3
:1038780004D018B100290CBF014600210846704742
:10388800034B1B6813B1034A10681847704700BF01
:1038980088060020AC0600200148FEF791BA00BF58
:1038A8008C060020FEE700000F49D1F8883043F469
:1038B8007003C1F888300D4B1A68002042F00102ED
:1038C8001A6098601A6822F0847222F480321A60B2
:1038D800074A5A601A6822F480221A60D8604FF0AA
:1038E80000638B60704700BF00ED00E000380240C5
:1038F800103000240438704703683F4A934288B068
:103908001BD1002200923D4A516C41F001015164E3
:10391800526C02F001020092009A394A93423FD158
:1039280000230593354B5A6C42F480325A645B6C21
:1039380003F480330593059B17E0B3F1804F16D04D
:10394800304A934220D0304A934239D02F4A93428A
:10395800E3D100230493294B1A6C42F008021A643D
:103968001B6C03F008030493049B08B07047002203
:103978000192224A116C41F001011164126C02F0AB
:1039880001020192019AC8E7002202921B4A116CB7
:1039980041F002011164126C02F002020292029AD2
:1039A8001B4A934218D100230693144B5A6C42F4D5
:1039B80000325A645B6C03F400330693069BD4E729
:1039C800002203920D4A116C41F004011164126C3B
:1039D80002F004020392039A0E4A9342C5D10023CF
:1039E8000793064B5A6C42F480225A645B6C03F4CA
:1039F80080230793079BB8E7000001400038024086
:103A0800004001400004004000080040000C004055
:103A180000440140004801400368224A93420DD106
:103A280021494A6C22F001024A64204A934222D179
:103A38001D4A536C23F4803353647047B3F1804FAD
:103A48000ED01B4A934211D01A4A93421BD01A4AED
:103A58009342EAD1144A136C23F0080313647047A5
:103A680011490A6C22F001020A64DEE70E490A6C69
:103A780022F002020A64114A934209D10A4A536C9D
:103A880023F40033D8E708490A6C22F004020A64D8
:103A98000B4A934200D07047034A536C23F48023A7
:103AA800CAE700BF00000140003802400040014062
:103AB8000004004000080040000C004000440140A1
:103AC8000048014008B5431C014611D0184B9842E4
:103AD80024D010D8A3F50063984221D003F5806361
:103AE80098421FD0B0F1804F1ED01248FFF7DAFE7F
:103AF8006FF00D0008BD104B984217D009D8A3F5F8
:103B08008843984212D003F580439842EDD118209B
:103B1800F0E70A4B9842E8D11A20EBE73220E9E7B0
:103B28001D20E7E71E20E5E71C20E3E71920E1E771
:103B3800000C0040007800080044014000480140A3
:103B480008B5431C014612D0194B984224D016D808
:103B5800A3F57843984221D00CD8B0F1804F1FD0FC
:103B6800A3F5806398421DD01248FFF79BFE6FF0C3
:103B78000D0008BD104B9842F6D13220F9E70F4BE3
:103B8800984211D003F5806398420FD0A3F50063E3
:103B98009842E9D11820ECE71B20EAE71E20E8E765
:103BA8001C20E6E71D20E4E71920E2E71A20E0E7F9
:103BB8000000014000780008000C0040004401406B
:103BC80038B50446FFF798FE0068FFF77BFFD4E995
:103BD8001012FDF7C1F82068FFF774FFFDF7EEF843
:103BE8002068FFF7ADFF05462068FFF76BFF8542A9
:103BF8000DD02068FFF7A4FFD4E91012FDF7ACF848
:103C08002068FFF79DFFBDE83840FDF7D7B838BDFD
:103C180008B5431C014610D0114B98421BD011D84F
:103C2800A3F57843984218D009D820F48063B3F1FB
:103C3800804F12D00B48FFF735FE002008BD0A4B15
:103C48009842F6E7094B984205D020F48062A3F524
:103C580000639A42EED10220F0E70120EEE700BFB0
:103C68000000014018780008000C0040004801409E
:103C78002DE9FF4704468946B0F94C004C49DDF868
:103C880030A090461F46FFF7C9FD4A490546B4F9DA
:103C98004E00FFF7C3FD0646002D00F08580B4F9FD
:103CA8004E30013301D000287ED031462846FFF738
:103CB800DEFD2060002877D03F4B98423AD103F5CB
:103CC80094335A6A42F010025A625A6A22F0100279
:103CD8005A62002201925A6C42F010025A645B6CDC
:103CE80003F010030193019B2523A4F850303049B9
:103CF800B4F94C00FFF772FD26B12E49B4F94E0015
:103D0800FFF76CFD94F851202C4B6761201D43F898
:103D1800220023680C22C4E901390023C4E9038A7C
:103D2800C4E906232362002E39D104B0BDE8F04768
:103D3800FEF79BBC224B984217D103F5FA331A6A57
:103D480042F400321A621A6A22F400321A6200221D
:103D580002921A6C42F400321A641B6C03F40033AA
:103D68000293029B4FF49373BFE7164B9842BED160
:103D7800154D6B6A43F020036B626B6A23F02003D6
:103D88006B62002303936B6C43F020036B646B6CD2
:103D980003F020030393039B40F24723A5E704B0F5
:103DA800BDE8F047FEF733BC04B0BDE8F08700BFBC
:103DB800B47900086C79000800100140B0060020B2
:103DC80000440040001401400038024008B1FFF7E9
:103DD8004FBF704708B5074B90F8512053F82200A1
:103DE800FEF7D2FD00F02200A0F12203584258410C
:103DF80008BD00BFB006002008B5074B90F8512059
:103E080053F82200FEF7C0FD00F02100A0F12103C5
:103E18005842584108BD00BFB006002070B50E4694
:103E2800054610B94FF0FF3070BDFFF7D3FF0446C9
:103E38000028F7D12946012211F8523F337095F82E
:103E48005100034B53F82000FEF760FC2046EBE7D7
:103E5800B006002070B50E460446F0B1FFF7BAFF71
:103E68000546D0B994F950006664FCF7B5FF94F89C
:103E780051000A4B04F1520153F820000122FEF7C9
:103E880045FC94F950002A460121FCF765FF94F996
:103E98005000BDE87040FCF791BF70BDB00600202F
:103EA80010B50446E8B1816490F95000FCF794FF1E
:103EB800A36DB4F8621094F8510013FA81F1094B1C
:103EC800012253F82000FEF702FC94F9500000226A
:103ED8000121FCF741FF94F95000BDE81040FCF7C0
:103EE8006DBF10BDB006002050B1B0F94E3001339F
:103EF80006D190F85120034B53F82200FEF714BD69
:103F0800704700BFB006002050B1B0F94E30013301
:103F180006D190F85120034B53F82200FEF71CBD40
:103F2800704700BFB0060020036C0438184710B56E
:103F3800436C04460438984701300AD0B4F85E1040
:103F4800636D20460122BDE8104013FA81F1FEF7A7
:103F5800BEBB10BD1FB503680446186810F0010009
:103F680013D0002200921A6800925B680093009BAD
:103F7800201FFFF72FFF40BB012204F14E0120460E
:103F880004B0BDE81040FEF7C1BB196811F002018A
:103F980006D001901A6801925B680193019BE7E7DC
:103FA8001A6812F0040206D002911A6802925B683D
:103FB8000293029BDCE719680907D9D503921A68AE
:103FC80003925B680393039BD2E704B010BD000023
:103FD80008B52520FCF72AFF024B1868BDE8084001
:103FE800FEF7F6BBB006002008B52620FCF71EFF3A
:103FF800024B5868BDE80840FEF7EABBB00600204F
:1040080008B54720FCF712FF024B9868BDE8084046
:10401800FEF7DEBBB006002010B50A4C2268131864
:10402800EFF308818B4206D9074B0C221A604FF038
:10403800FF32104610BD05490548091A8B42F3D2D4
:104048002360F6E724000020381100200000022039
:1040580000040000FEE70000024B16221A604FF031
:10406800FF30704738110020012070477FB50F22BC
:104078000223CDE90123032100234FF4805201A834
:10408800CDE903320593FDF799FDB0FA80F04009B8
:1040980007B05DF804FB000010B58EB01C4B00247F
:1040A80000941A6C42F080521A641B6C194A03F08F
:1040B80080530093009B0194136823F4404343F416
:1040C80000431360136803F440430193A042019B2B
:1040D8004FF0010302930CBF4FF480334FF4A02339
:1040E8004FF4800203930223CDE908321921C0223C
:1040F8000C9302A80423CDE90A120D93FDF788FB5F
:1041080018B9FFF7B3FF0EB010BD2046FBE700BF9C
:10411800003802400070004010B58EB00024194BE2
:1041280000941A6C42F080521A641B6C164A03F011
:1041380080530093009B0194136823F4404343F495
:10414800004313601368039403F440430193019BF5
:1041580003231022029301230593069202230A9255
:10416800C022CDE90834CDE90B2302A804230D931E
:10417800FDF74EFB18B9FFF779FF0EB010BD2046CA
:10418800FBE700BF003802400070004008B500207F
:10419800FFF782FF60B90120FFF77EFF40B9FFF704
:1041A800BBFF28B9BDE808400248CF21FFF77ABB1A
:1041B80008BD00BF207A0008B0F86230013303F070
:1041C8003F03A0F86230B0F86230B0F85E009BB2EE
:1041D80098424FF0FF3018BF00207047B0F8F43015
:1041E800B0F8F000181A00F03F007047B0F8F4304B
:1041F800B0F8F0209BB293421ABFD0F8E830985C30
:104208004FF0FF30704713B50DF107010446FFF773
:1042180005FE90B9B4F86030B4F85C20013303F0BF
:104228003F03934209D0B4F86020616D9DF8070000
:1042380092B29BB28854A4F8603002B010BD00005E
:10424800012370B50374B0F9E230013304460E4619
:1042580000F1940508D190F8F8302BB1002380F8CC
:10426800F8302846FFF740FEB4F8F2104B1C03F074
:104278003F03B4F8F62092B29342FAD0D4F8EC2077
:1042880028465654A4F8F230FFF7B6FD18B903498A
:104298002846FFF705FE012070BD00BFC141000898
:1042A800037C33B1B0F8F220B0F8F6309BB29A42F2
:1042B800FAD1704700F11103914208BF4FF0FF3166
:1042C800A0F8E020C0F8E83000F151020023A0F87F
:1042D800F430C0E93B23A0F8E210A0F8F6307047AC
:1042E80070B54FF47A7316460022C0E90123164BC5
:1042F80003604FF6FF73A0F8E230144B984204466F
:104308000D4614D1124B9A8AA0F8E2205B8AA0F8D5
:10431800E030012E04BF4FF6FF73A4F8E2302046C8
:10432800B4F9E020B4F9E210FFF7C4FF70BD094901
:104338002846FFF785FA0849A4F8E2002846FFF75F
:104348007FFAA4F8E000E4E7587B0008DC070020C7
:10435800A87A00086C790008B4790008B0F9E2304E
:10436800013310B504460ED103685B69984794F889
:10437800F83043B9012384F8F83004F19400BDE81B
:104388001040FFF7C1BD10BD02F00703023BDBB2CE
:10439800042B2DE9F7430E46C0F8FC1098BF1F49BF
:1043A80080F8F92098BFCC5C02F0300388BF002465
:1043B800302B054626D101344FF4C06712F0080FA0
:1043C80014BF4FF400594FF00009082C21D0092CD4
:1043D80021D013484FF4C171FFF764FA05F194082E
:1043E80031463B4622464046CDF80090FFF7EEFCAA
:1043F8002846FFF7B3FF0B49404603B0BDE8F0433A
:10440800FFF728BD12F020071CBF01344FF4806766
:10441800D4E70024E2E74FF48054DFE74B7B000841
:10442800F07A00080F42000810B50446FFF796FF1F
:10443800B4F8F420B4F8F03092B29A421FBFD4F81E
:10444800E820D05C013303F03F0314BFA4F8F03038
:104458004FF0FF3010BD0000024903480022FFF76B
:104468003FBF00BF00100140BC060020836810B5A4
:1044780004462BB10322014698470023C4E90233BE
:10448800204610BD4B1E032B9ABF880004384FF0FE
:10449800FF3070470139435C2BB1022907D8054B1F
:1044A80033F811007047032901D8034BF8E74FF0A0
:1044B800FF307047D27B0008D87B00082DE9F04117
:1044C80004460F46FFF7DEFF431C054604D13F486C
:1044D80040F24D11FFF7E6F97E1E032E28D83C4B1B
:1044E80013F8068039462046FFF7D4FF013004D17F
:1044F800364840F25711FFF7D5F904EB071758373C
:10450800BB683BB123696FEA08021A61DA6842EABC
:104518000802DA6004EB46039B88013B0B2B4BD85F
:10452800DFE803F01B1B1B1B0E0E1B1B4C4C4C28FF
:1045380026484FF4A9714FF0FF38FFF7B3F9D1E7D8
:10454800A35D04F1100029461BB1BDE8F041FDF759
:10455800DDBFBDE8F041FDF7A1BFA35D04F1100088
:1045680029461BB1BDE8F041FDF7BABFBDE8F041EF
:10457800FDF778BF294604F11000FDF791FF032EDF
:1045880098BF144B256994BF9A574FF0FF321146D4
:104598002046FFF77FFF2B6A1843BB6828625BB190
:1045A800013A032A9ABF0A4B9A5C4FF0FF32D34371
:1045B8002B61EB681343EB60BDE8F081294604F1F9
:1045C8001000BDE8F041FDF76BBF00BF787B000825
:1045D800E07B0008E47B0008036E10B5044653B185
:1045E80050F8103F6FF001021A61DA6842F00102D8
:1045F800DA60FDF785FC20460121FFF75FFF2046C2
:104608000221FFF75BFF20460321FFF757FF2046F3
:104618000421BDE81040FFF751BF036901399962D1
:10462800704700002DE9F0418CB00E4604469046D4
:104638001F46FFF727FF411C054604D14B4840F2AF
:104648004D21FFF72FF9013E04EB4603A3F8048040
:104658004FF6FF7305932369D5B95B6B069300206A
:104668004FF6FF720123CDE90900CDE90123CDE919
:104678000300079008900B90B8F10C0F1ED8DFE8E4
:1046880008F0101016323537404244464E51530058
:10469800042D01D19B6BE1E7082D0CBFDB6B1B6C74
:1046A800DCE705902A4605A904F1100004E0102370
:1046B80005932A4605A9E018FDF77EFD7B1C0FD05F
:1046C8003846FEF7A3FEA8424AD129493846FFF7E3
:1046D80085F827493846FFF7C5F8C0F30050A055BC
:1046E8000CB0BDE8F08120230593DBE73023FBE71E
:1046F80060232A4605A904F110000593FDF788FDFB
:10470800DCE77023F5E75023EEE74023ECE7019060
:104718002A4601A904F11000FDF70CFECEE702239A
:104728000193F5E70A23FBE704F1100801A90190BA
:104738002A464046FDF7FEFD032E9ABF0D4B9957BA
:104748004FF0FF3104EB41030C225A80204602232C
:10475800CDE90133FFF796FE01A902464046DBE7A3
:10476800024840F2B721FFF79DF8B2E7787B0008CE
:1047780034780008E47B000803691A6819B142F02C
:1047880080021A60704722F08002FAE70121103097
:10479800FDF7C8BB164A904203461BD0B0F1804FC4
:1047A8001AD0A2F57C42904218D002F5806290425D
:1047B80016D002F58062904214D04FF6FF700D4A71
:1047C800934211D00C4A934210D00C4A934208BF2E
:1047D800072070470020F2E70120F0E70220F1E708
:1047E8000320F2E704207047052070470620704731
:1047F80000000140004001400044014000480140E1
:10480800014670B5044651F8100FFFF7C3FF05467F
:104818000846FFF701F9094A002342F8253004F158
:104828005806E36004F1A805B54204D0103D2846B7
:10483800FEF75FFEF8E7204670BD00BFBC0700200A
:10484800F8B5002303660367C0F88030C0F89030DD
:10485800C0F8A030044608460D46FFF79BFF4FF608
:10486800FF739842064603D11E482F21FFF71AF816
:104878001D4A256104F10C0342F8263000230E225C
:1048880004F11006C4E90C33C4E90E33C4E910334B
:10489800C4E9142384F82C30A36484F84C3084F8D9
:1048A8004D30E4603046FFF727F804F1580504F16D
:1048B800A80728461035FFF7D9FDBD42F9D10023D6
:1048C8004FF6FF72C4E90033C4E90632C4E908337D
:1048D800A36063618023A3623046FDF727FC20466E
:1048E800F8BD00BF787B0008BC07002030B58DB04C
:1048F80014220446002101A802F032F80025694676
:1049080001A80095FDF71CFA2069FFF781F9012835
:1049180008D0022822D01B4840F2FF41FEF7C2FF10
:104928002C4603E0049DFDF7EBF90446182200210C
:104938000DEB020002F014F806A8FDF71FFA9DF827
:104948002C30012B10D125F48065B5F5C05F09D056
:10495800FDF7D0F9044620460DB030BD059DFDF7A2
:10496800DFF9E2E7A400F6E7B5F5C05F05D006D8A1
:1049780025F48065B5F5805FEDD16400EBE7B5F50A
:10498800E05FF9E7787B0008012A38B505460C4650
:1049980007D0022A12D004B1013C2B69DC62EC6119
:1049A80038BDFFF7A3FF0849B0FBF1F044432B697A
:1049B800210C99620131B4FBF1F4ECE7FFF796FFA3
:1049C800B0FBF4F4F3E700BF40420F0010B5074C0A
:1049D800206810B10430FDF7B9FAA06920B1BDE82C
:1049E80010400430FDF7B2BA10BD00BFBC0700206C
:1049F800034B186810B10430FDF7A8BA704700BF20
:104A0800BC070020034B586810B10430FDF79EBA6C
:104A1800704700BFBC070020034B986810B10430F2
:104A2800FDF794BA704700BFBC070020034BD86855
:104A380010B10430FDF78ABA704700BFBC070020E8
:104A4800034B186910B10430FDF780BA704700BFF6
:104A5800BC070020034B586910B10430FDF776BA43
:104A6800704700BFBC070020034BD86910B1043061
:104A7800FDF76CBA704700BFBC07002030B587B09F
:104A880002AD04462846FEF779FD95E803006B461B
:104A980083E8030094E8030085E8030093E8030033
:104AA800049BA268A360059B049284E80300E26863
:104AB800E36028460592FEF71CFD204607B030BD8E
:104AC80038B504460D46236E583013B1FFF7D6FFAC
:104AD80038BDFFF7D3FFAB68002BF9D023696FF01F
:104AE80001021A61DA6842F00102DA60F0E78268CE
:104AF80010B50AB902F082FDBDE81040C368184736
:104B080010B5044620B9074840F22641FEF7CAFE10
:104B18002046FEF7EFFE0068036E13B15830FFF72A
:104B2800E6FF10BD787B0008FFF7EABF38B50546F9
:104B380020B9114840F23941FEF7B4FE2B7F013B02
:104B4800072B11D8DFE803F015041011101010130B
:104B580002242846FEF7CEFE24010068583420447B
:104B680083680BB1FFF7C3FF38BD0324F1E70424C2
:104B7800EFE70124EDE700BF787B0008FFF7D6BF19
:104B8800FFF7D4BFF8B505460E4617460024BC42C9
:104B980007D02B68315D1B682846984708B1013457
:104BA800F5E72046F8BD13B50446084659B101910A
:104BB800FBF7F8FA236801995B680246204602B0C1
:104BC800BDE81040184702B010BD03688A685B68EA
:104BD8000968184708B50249FFF7E5FF08BD00BF97
:104BE800E87B000838B50546FFF7DDFF0446284690
:104BF800FFF7F0FF204438BD38B50546FFF7E5FF5D
:104C080004462846FFF7E6FF204438BD38B5054678
:104C1800FFF7C9FF04462846FFF7DCFF204438BDEC
:104C280010B5044601F082FCE06023682046DB688A
:104C38009847002808DA01F079FCE368C01AA368ED
:104C48009842F2D34FF0FF3010BDF8B506460D4636
:104C580017460024BC4207D03046FFF7E1FF031E89
:104C680002DB2B550134F5E72046F8BD2DE9F0416C
:104C78000746884616461D4673B100243846FFF796
:104C8800CFFF031E05DB434503D033550134A5424E
:104C9800F4D12046BDE8F0811C46FAE707B5036861
:104CA8008DF807105B6801220DF10701984703B0E2
:104CB8005DF804FB014800F0E6BA00BF20080020B8
:104CC8002DE9F041DFF83C800E4614461746AFB197
:104CD80000F04AFD90B1404600F0D5FAB84228BF2E
:104CE800384605460028F2D002463146404600F0D4
:104CF800EBFA7F1B2E4400F053FDE8E7E01BBDE80C
:104D0800F08100BF20080020014800F082BB00BFEE
:104D1800A608002010B5044800F0A3FB044600F0E4
:104D280075FD204610BD00BFA60800202DE9F843F8
:104D380006460F46154694B201F0F8FBDFF83490AA
:104D4800F06022463946484600F0E8FB8046A4EB6E
:104D58000804A4B200F05AFD47443CB101F0E6FB58
:104D6800F368C01AB3689842EBD32D1B2846BDE8F8
:104D7800F88300BFA60800202DE9F04F85B006464D
:104D8800884617461C469DB201F0D0FBDFF84CA0C0
:104D9800F0600DF10E093A462B464146CDF80090D9
:104DA800504600F003FC834600F030FDBDF80E20AD
:104DB800AD1AADB21744BBF1000F04D0641B2046F6
:104DC80005B0BDE8F08F002DF9D001F0AFFBF36816
:104DD800C01AB3689842DED3F0E700BFA6080020E7
:104DE800014800F075BB00BFA608002010B5034CB1
:104DF800204600F058FA0028FADC10BD20080020F0
:104E080000F08EBC044B10B51C680A2001F090FB22
:104E1800631E5842584110BDF0070020044B4FF460
:104E28007A720021C3E90112024A1A60704700BF72
:104E3800DC070020F47B000810B5029C401AE41A35
:104E48004443511A94FBF1F4E01810BD10B5044620
:104E5800006801F055FD204610BD10B504460068F5
:104E680008B101F04DFD0023C4E90133236010BDF2
:104E780038B504460D460068013101F023FE10B133
:104E8800C4E90005012038BD036810B5044623B104
:104E980043688B4201D3012010BD2046FFF7E8FF8D
:104EA8000028F9D0A368002BF5D122681370F2E727
:104EB80070B50E46114604461546FFF7E5FF20B9C2
:104EC8002046FFF7CAFF204670BD2068A56031461E
:104ED80001F051FEF7E7002313B5C0E9003304469B
:104EE800836041B108460191FBF75CF901990246DC
:104EF8002046FFF7DDFF204602B010BD70B50E4614
:104F0800114604461546FFF7BFFF20B92046FFF7B4
:104F1800A4FF204670BD2068A560314601F02BFE35
:104F2800F7E738B5054600680C4638B1096819B185
:104F38006A68A3689A420BD201F0E2FC23682B60EE
:104F480063686B60A368AB600023C4E9003304E0C6
:104F580001F011FEA368AB600023A36038BD88424E
:104F680010B5044601D0FFF7DCFF204610BD13B58D
:104F7800044659B108460191FBF714F90199024614
:104F88002046FFF795FF204602B010BDFFF765FFEA
:104F9800F9E713B5044659B108460191FBF702F940
:104FA800019902462046FFF7A9FF204602B010BD2E
:104FB800FFF753FFF9E710B500230446C0E90033B3
:104FC8008360FFF7E6FF204610BD134610B58A68D8
:104FD8008468A41A9C420AD3006838B1096841B1B0
:104FE800184401F0D0FDB0FA80F0400910BD00204F
:104FF800FCE70846FAE782688B689A4202D30022E7
:10500800FFF7E3BF0020704708B58A6883689342BA
:105018000BD3006840B1096849B19B1A1844FBF7E3
:10502800B7F8B0FA80F0400908BD0020FCE7084650
:10503800FAE78368934210B506D90468A01801F00E
:105048008DFD08B1001B10BD4FF0FF30FBE72DE9C7
:10505800F04115468A680E46CAB18368BBB19A42C8
:1050680015D80768AB4298BF03F1FF3538464FF0B3
:10507800FF3407EB050840450BD8316801F095FD72
:1050880038B1C31BAB4298BF1C460130F3E74FF061
:10509800FF342046BDE8F0812DE9F0419A420E46E2
:1050A8001F460F4988BF13461446804684BF3C46B6
:1050B8001F46FFF710FFB568A5420DD9BD423368FA
:1050C80028BF3D4600225F5D5A553168404621445D
:1050D800FFF74DFF33685F554046BDE8F08100BFDC
:1050E800EA7B00082DE9F74FD0F808A005460F46DF
:1050F8001646BAF1000F78D0D1F808B0BBF1000F0E
:1051080073D093680468A3EB0B08B8F1000F0DD1B6
:105118002046396801F049FD0446002865D0B26888
:10512800316801F0F5FBB0680444F1E70BDB09686E
:10513800D1462046019101F038FD38B3019900EBC2
:105148000B04C144F5E7A1463968204601F02DFD5E
:105158008246A0B1A0EB040B21465A464846D944E2
:1051680001F0D6FBB2683168484601F0D1FBAB6864
:10517800B268BC68434491445444AB60E4E72146B8
:10518800484603B0BDE8F04F01F0F5BCCA452CD045
:105198006B684B4523D3AC684FF00009621E002AA8
:1051A80023DB39462846FFF752FF041E1DDBBB6888
:1051B8002968AA6823441944D21A01EB080001F0AF
:1051C800B5FBAB682A684344AB6002F803902868D3
:1051D800B2683168204401F09BFB621EDFE7494654
:1051E8002846FFF745FE0028D5D103B0BDE8F08F6B
:1051F800006808B101F053BB704708B50320FBF7FE
:1052080099FDBDE8084001F0BBB908B5AFF30080CF
:10521800FBF7AAF8FBF704F901F098F9FAE701F0AF
:1052280067BB01F06DBB0000DFF834D0002103E05C
:105238000C4B5B58435004310B480C4B42189A42B4
:10524800F6D30B4A02E0002342F8043B094B9A428A
:10525800F9D3FEF729FB01F027FBFFF7D6FF7047CC
:1052680000000220587F0008000000200C020020E7
:105278000C02002048110020FEE70023A0F882302D
:10528800A0F880307047B0F88230B0F880009BB248
:1052980080B2181A7F30434203F07F0300F07F008A
:1052A80058BF58427047B0F88030B0F882009BB2BF
:1052B80082B203F18000801A434203F07F0300F0BA
:1052C8007F0058BF58427047F8B5B0F88050ADB26B
:1052D800C5F18005954204460F46B0F88000164691
:1052E8000CD914FA80F001F013FBB4F8803016FAE8
:1052F80083F202F07F02A4F88020F8BD2A4614FA4F
:1053080080F001F005FB721B79192046EBE7B0F835
:105318008020B0F8823092B29BB29A422BBFB0F88C
:105328008030B0F88230B0F88220C3F1800328BF03
:105338009B1A9BB20B80A0F88430B0F8823010FA28
:1053480083F07047B0F88220B0F88430134403F03B
:105358007F03A0F8823070470023A0F8C230A0F87D
:10536800C030C023A0F8C4307047B0F8C23082B053
:105378009BB2ADF80630B0F8C020BDF8063092B246
:105388009BB29A42B0F8C0309BB21FD37F2B08D98A
:10539800B0F8C0309BB2802B09D1BDF806309BB263
:1053A8002BB1B0F8C03010FA83F002B07047BDF8E6
:1053B80006309BB2402B4FF000030DD9B0F8C02047
:1053C80092B2A0F8C420A0F8C030EAE7BDF80620E1
:1053D800403392B29342E4D30020E6E7B0F8C030FD
:1053E80011FA83F189B2A0F8C010B0F8C020B0F863
:1053F800C43092B29BB29A4224BFC023A0F8C430F2
:10540800B0F8C0309BB2BF2B84BF0023A0F8C030D7
:105418007047B0F8C03082B09BB2ADF80430B0F835
:10542800C4309BB2ADF80630B0F8C220BDF80430E5
:1054380092B29BB29A4208D8BDF80430B0F8C200C4
:105448009BB280B2181A02B07047BDF80630BDF89A
:105458000410B0F8C22089B292B211FA83F0801A0F
:10546800F1E7B0F8C03082B09BB2ADF80430B0F8C4
:10547800C4309BB2ADF80630B0F8C220BDF8063093
:1054880092B29BB29A4204BF0023A0F8C230B0F88F
:10549800C220BDF8043092B29BB29A4215D0B0F83F
:1054A800C2309BB25A1C92B2A0F8C220B0F8C21007
:1054B800BDF80620C35C92B289B2914224BF002293
:1054C800A0F8C220184602B070474FF0FF30FAE744
:1054D800B0F8C03082B09BB2ADF80430B0F8C43038
:1054E8009BB2ADF80630B0F8C220BDF8063092B2D3
:1054F8009BB29A4224BF0023A0F8C230B0F8C22061
:10550800BDF8043092B29BB29A421BBFB0F8C230C9
:105518009BB24FF0FF30C05C02B0704737B504460D
:105528000846B4F8C0309BB2ADF80430B4F8C430C3
:105538009BB2ADF80630B4F8C210BDF8063089B297
:105548009BB2994224BF0023A4F8C230B4F8C21019
:10555800BDF8043089B29BB2994294BFBDF80430BB
:10556800BDF80630B4F8C250B4F8C2105B1B9DB247
:10557800954228BF15462A4614FA81F101F0C8F968
:10558800B4F8C23015FA83F39BB2A4F8C230B4F869
:10559800C220BDF8063092B29BB29A4228BF0023BF
:1055A800284628BFA4F8C23003B030BDF7B5B0F81C
:1055B800C040089DA4B2ADF80440B0F8C440A4B2FD
:1055C800ADF80640B0F8C260BDF80640B6B2A4B265
:1055D800A64224BF0024A0F8C240B0F8C260BDF8BB
:1055E8000440B6B2A4B2A64294BFBDF80440BDF8C8
:1055F8000640B0F8C260B0F8C270A41BA4B2A342BF
:1056080028BF234610FA87F70024A6B2B34215D85C
:105618002B80B0F8C22013FA82F39BB2A0F8C230F4
:10562800B0F8C220BDF8063092B29BB29A424FF051
:10563800000328BFA0F8C230184618E017F804C0C5
:105648008C4516D1B0F8C2309BB2013333449BB2BB
:10565800A0F8C230B0F8C220BDF8063092B29BB2B2
:105668009A4224BF0023A0F8C2302E80012003B044
:10567800F0BD02F804C00134C7E7002070470000FD
:1056880008B50948FFF7F9FD0848FFF765FE084B1C
:10569800064801221A70FFF768FE0146054801F026
:1056A800BBF8002008BD00BF20080020A608002085
:1056B800440000206C09002021280ED022281DD08B
:1056C800202808D1134B0A681A600A791A714A7996
:1056D8005A718A799A71002070470E4B1A680A70BD
:1056E8001A68120A4A705A888A70DA78CA701A795F
:1056F8000A715A794A719B798B71ECE74B88064A93
:1057080003F0010313601368002BE4D0034B00225D
:105718001A60E0E73C000020F0070020F4070020B2
:1057280010B50C4C22789AB90B490C4800F0A0F837
:1057380070B90B49094800F0B0F848B90949074859
:1057480001F05BF820B9054800F0AEF8012323709A
:1057580010BD00BFEC0700205C0000206C09002091
:1057680098000020280000200A4B10B51C6814B1CE
:10577800FBF7C6FA041B084B93F89C32032B07D19E
:10578800022C05D8054B1868003818BF012010BD39
:105798000020FCE7F40700206C090020F007002037
:1057A8001FB50F4CD4F8B832D3F81432ABB90D4842
:1057B8000DF10E01FFF7ABFDBDF80E306BB1019096
:1057C800FBF79EFA084BBDF80E2018600199204699
:1057D80001F01AF8204601F025F804B010BD00BF0A
:1057E8006C09002020080020F407002010B5054BA4
:1057F800054800241C60FFF7A5FDFFF7D1FF2046F0
:1058080010BD00BFF40700202008002038B50A4D5D
:105818002B780BB1002038BD0848FFF7A6FD0146DC
:105828000028F7D0012406482C7000F0F5FF044842
:1058380001F011F82046EEE744000020A6080020F9
:105848006C09002008B509880648FFF7C7FD064B14
:1058580000221A70FFF7DAFF10B9044801F012F8B5
:10586800002008BDA6080020440000206C09002084
:1058780008B580B1D0F8B43213B10023C0F8B432FF
:1058880009B1C0F8B012012380F89C32027000F010
:1058980077FC002008BD0220FCE719B1C0F8B4125B
:1058A800002070470220704708B500F0A7FC0020D0
:1058B80008BD08B5D0F8B4320BB9022008BD1B6882
:1058C80098470028FAD0F8E708B5D0F8B4325B68F2
:1058D8009847002008BD38B5044600F52A752846C3
:1058E80000F0F6FA012394F8A812C4F89432B4F838
:1058F800AE32C4F8983201F01F03012B08D0022BF6
:105908000BD07BB92946204600F00CF9002038BDA1
:105918002946204600F030FAF8E72946204600F0EC
:105928004FFAF3E701F08001204600F07FFCEDE735
:1059380070B5044616460D4639BBD0F89432032B91
:105948001CD1D0E9581291420BD9891A8A42C0F861
:1059580060118CBF8AB292B2314600F016FB28461D
:1059680070BDD0F8B4321B6923B190F89C22032A89
:1059780000D19847204600F010FBF0E7052BEED148
:10598800C4F8941200F052FCE9E7D0F8B4329B69ED
:1059980033B190F89C22032A02D198470025DEE70C
:1059A8000225DCE7F8B5044617460D46002947D11D
:1059B800D0F89432022B3CD1D0E908639E4214D926
:1059C800F31A03629AB2394600F0CAFA2B462A46FD
:1059D8002946204600F059FC94F8A032012B02D148
:1059E800002384F8A0322846F8BDC269B2FBF3F65A
:1059F80003FB16265EB9934209D8D0F898329A422A
:105A080005D20A4600F0ACFAC4F89852DEE794F8DA
:105A18009C32032B09D1D4F8B432DB680BB1204691
:105A280098478021204600F001FC204600F0C0FA8B
:105A3800D2E733F00403CFD1802100F0F7FBCBE7A6
:105A4800D0F8B4325B6933B190F89C22032A02D1B2
:105A580098470025C7E70225C5E770B50022044628
:105A6800114601254026402300F0CFFB3346802114
:105A7800C4F85851C4F864610022204600F0C5FB00
:105A8800D4F8B832A5610021666284F89C52C4F843
:105A980094126160C4F8A41223B1D4F8B432204639
:105AA8005B689847002070BD01740020704790F82B
:105AB8009C3280F89D32042380F89C320020704785
:105AC80090F89C32042B04BF90F89D3280F89C32E9
